:020000040801F1
:1000000020E20020090201082D79010899710108F8
:100010002B7901089D36010841A701080000000066
:1000200000000000000000000000000089850108B9
:100030006168010800000000C9790108799601088B
:1000400023020108230201082302010823020108F8
:1000500023020108230201082302010823020108E8
:10006000230201082302010823020108CD650108CB
:1000700023020108230201082302010823020108C8
:1000800023020108230201082302010823020108B8
:10009000A1360108230201082302010823020108F6
:1000A0002302010823020108230201082302010898
:1000B00045990108230201082302010823020108CF
:1000C0002302010823020108230201082302010878
:1000D0002302010823020108230201082302010868
:1000E0002302010823020108230201080000000086
:1000F0000000000000000000000000000000000000
:100100000000000000000000230201082302010893
:1001100023020108F99A01082302010823020108B9
:100120002302010823020108230201082302010817
:100130002302010823020108230201082302010807
:1001400005370108230201082302010823020108E0
:10015000DFF80CD000F050FB004800477DB40108E8
:1001600020E20020204B19680868B0E8F00F80F307
:100170000988BFF36F8F4FF0000080F311884EF0B5
:100180000D0E70470000000006480068006880F30C
:10019000088862B661B6BFF34F8FBFF36F8F00DF81
:1001A00000BF00BF08ED00E0EFF30980BFF36F8FE1
:1001B0000D4B1A6820E9F00F106008B54FF0BF0032
:1001C00080F311880CF0AEF84FF0000080F3118836
:1001D000BDE8084019680868B0E8F00F80F30988A6
:1001E000BFF36F8F704700BF40000020EFF3118016
:1001F0004FF0BF0181F31188704780F31188704779
:10020000EFF3058070470000064880470648004726
:10021000FEE7FEE7FEE7FEE7FEE7FEE7FEE7FEE7B6
:10022000FEE7FEE7E99801085101010840EA0103F1
:100230009B0703D009E008C9121F08C0042AFAD29C
:1002400003E011F8013B00F8013B521EF9D2704760
:10025000D2B201E000F8012B491EFBD27047002208
:10026000F6E710B513460A4604461946FFF7F0FFB5
:10027000204610BDF0B480EA0102D40F4200B2EB78
:10028000410F02D20246084611464A0042D0C30D31
:10029000DDB2C1F3C752AD1A202D35DAC1F3160114
:1002A00041F4000204B15242C5F1200602FA06F1FF
:1002B0002A411044B3EBD05F23D0C4B1012DA0EB91
:1002C000C35009DCF0BC4FF0004202EAC35200F513
:1002D0000000DBB200F004BA400000F1807000EBD7
:1002E000C350A0F1807040EAD170490009E049088C
:1002F00041EAC071A0EBC35000F50000400800EBDC
:10030000C350F0BC00F0E3B96142012202EB4101AD
:10031000001BF6E7F0BC704781F00041AAE780F0CF
:100320000040A7E780EA010210B502F00043400058
:1003300026D04A0023D04FEA106101EB1261C0F3CE
:100340005600C2F3560240F4000042F40002A0FB43
:100350000220A1F17F014FEA0040140401D000F116
:10036000010050EA124001D44000491EC2B20C06FE
:1003700004EBD010401C4008802A02D003E000208B
:1003800010BD20F00100002900DA0020184310BD44
:100390002DE9FE4F81EA030404F0004421F00041FE
:1003A00000944FF0000B23F0004350EA010402D008
:1003B00052EA030404D10020014603B0BDE8F08FE7
:1003C000C3F30A54C1F30A552C44A4F2F334019444
:1003D000A0FB0254C1F3130141F48011C3F31303D2
:1003E00043F4801301FB024400FB034E840A970A86
:1003F00044EA815447EA8357A4FB076802958D0AB3
:1004000005FB07854FEA932C04FB0C542705029D3E
:100410004FEA065847EA1637B5EB08056EEB070CAE
:10042000870E920E47EA811742EA8312A7FB020168
:10043000B6EB0B0164EB00042B0D43EA0C335E18A2
:1004400044EB1C50DA465146E7FB0201C5F31304A6
:100450004FEA0B3343EA14534FEA0432019C43EA58
:100460000603A4F10C040294009CCDE900B400F052
:1004700071F9A2E72DE9F04D81EA030404F0004B85
:1004800021F0004514464FF0000A23F0004150EAE5
:10049000050220D054EA01021DD0C5F30A570246D6
:1004A000C5F31303C1F31300C1F30A5640F48015DA
:1004B00043F48013A7EB0608101BD64608F2FD385C
:1004C00073EB050002D308F1010801E092185B41CB
:1004D000B8F1000F03DA00200146BDE8F08D0020DE
:1004E0004FF48011064684460EE0171B73EB050798
:1004F00005D3121B63EB050306434CEA010C4908C4
:100500004FEA300092185B4150EA0107EDD152EA00
:10051000030012D082EA040083EA0501084303D1F4
:1005200000224FF0004308E0101BAB4102D2012231
:10053000002302E06FF0010253101AEB06004CEBAF
:10054000085110EB0A0041EB0B01BDE8F04D00F043
:10055000F4B896230022114600F0C2B80EB5C10FC0
:1005600080EAE0700844CA07002140F233438DE876
:100570000E000A460B4600F0EDF803B000BD0EB5C4
:1005800040F2334102910021CDE900110A460B46A9
:1005900000F0E0F803B000BD00F0004220F00040A1
:1005A000C10DC0F3160040F400007F2901DA0020DD
:1005B0007047962903DCC1F19601C84001E09639E5
:1005C0008840002AF4D040427047C1F30A5210B567
:1005D000C1F3130140F2FF3341F480119A4201DA72
:1005E000002010BD40F233439A42A2F2334203DCB2
:1005F000524200F05CF810BD904010BD30B50029AB
:1006000004DB4FF00044404264EB0101002B04DBAB
:100610004FF00044524264EB03038B4208BF824216
:1006200030BD000030B5002904DB4FF000444042EB
:1006300064EB0101002B04DB4FF00044524264EBF9
:100640000303994208BF904230BD00002DE9F05FDE
:100650000546002092469B46884606468146402431
:100660001BE0284641464746224600F020F8534604
:100670005A46C01A914110D311461846224600F03E
:10068000CDF82D1A67EB01084F46224601200021C4
:1006900000F0C4F817EB00094E41201EA4F101043C
:1006A000DFDC484631462A464346BDE8F09F202A13
:1006B00004DB203A21FA02F00021704721FA02F30C
:1006C000D040C2F1200291400843194670470029EA
:1006D000A8BF7047401C490008BF20F001007047C8
:1006E00010B4B0FA80FC00FA0CF050EA010404BF28
:1006F00010BC704749B1CCF1200421FA04F411FA7E
:100700000CF118BF012121430843A3EB0C01CB1DC1
:100710000106000A002BBEBF002010BC704700EB92
:10072000C35010440029A4BF10BC7047401C4900AE
:1007300008BF20F0010010BC704710B5002B08DA8C
:10074000401C41F1000192185B411A4301D120F095
:10075000010010BD2DE9F04D92469B4611B1B1FA52
:1007600081F202E0B0FA80F22032904600F056F8B2
:1007700004460F4640EA0A0041EA0B0153465A4636
:10078000084303D120463946BDE8F08D114653EAAF
:10079000010015D0C8F140025046FFF788FF05461A
:1007A0000E4650465946424600F038F8084301D0FC
:1007B000012000E00020054346EAE0762C43374361
:1007C0000A984FEA4453A0EB08004FEAD4240A30B9
:1007D0004FF0000244EA47544FEAD72502D50020E3
:1007E0000146D1E7010510196941DDE90845001905
:1007F0006941BDE8F04DA0E7064C074D06E0E06812
:1008000040F0010394E8070098471034AC42F6D357
:10081000FFF7A2FC04C7010824C70108202A04DB53
:10082000203A00FA02F1002070479140C2F1200303
:1008300020FA03F319439040704770B501EB0204AE
:1008400010F8015B15F0070301D110F8013B2A11E4
:1008500006D110F8012B03E010F8016B01F8016BD1
:100860005B1EF9D12B0705D40023521E0FD401F8CB
:10087000013BFAE710F8013B02F10202A1EB03038E
:1008800003E013F8015B01F8015B521EF9D5A142A8
:10089000D6D3002070BD000070B586B001210420C1
:1008A00007F004F90121102007F000F901214802A6
:1008B00007F0FCF80C20ADF800002E4E00248DF857
:1008C00003406946304606F0D9FA0720ADF800002B
:1008D0008DF803406946284806F0D0FA0225ADF8A5
:1008E00000508DF803406946304606F0C7FAADF86F
:1008F00000508DF803406946304606F0BFFA00F01C
:100900006BF81E4D284600F0C1F88DF80840012014
:1009100001948DF809004FF46021CDE903148DF89E
:10092000140001A9284600F0E1F84FF4404007F018
:100930008FF8072301220C21284600F0FBF8012143
:10094000284600F099F80121284600F08BF8284647
:1009500000F02AF92C46204600F0C1F80028FAD110
:10096000204600F026F9204600F0B2F80028FAD11F
:1009700006B070BD00100140000801400024014095
:100980000448016821F002010160016821F4A0011E
:1009900001607047082401400448016841F00201E9
:1009A0000160016841F4A001016070470824014022
:1009B0000248816821F00101816070470000024017
:1009C000034800680348816841F001018160704775
:1009D0004C2401400000024030B501218DB0084692
:1009E00007F040F8194D284605F092FE184800908F
:1009F00018480024CDE901041420CDE90304802027
:100A00000590400006908000CDE90704C000CDE9C4
:100A100009046946284605F005FF0B208DF82C00D7
:100A200006208DF82D008DF82E4001208DF82F0026
:100A30000BA806F07DFF01220221284605F0EAFE00
:100A40000121284605F058FE0DB030BD08000240D7
:100A50004C24014026BF0020014A5061D1607047FC
:100A6000000002400029816802D041F0010101E04C
:100A700021F00101816070470029816802D041F4B2
:100A8000807101E021F48071816070470D4910B5DB
:100A9000884202D1012144150AE00B49884202D163
:100AA0000121041504E0094988420AD10121CC033F
:100AB000204607F007F82046BDE81040002107F067
:100AC00001B810BD0024014000280140003C014055
:100AD000014600208968490700D50120704701467A
:100AE00000208968090700D50120704710B54268C9
:100AF0000E4B0C791A400B6842EA04221343436000
:100B000083680B4A1340D1E9024222434C7943EAFD
:100B100044031A438260C26A097C22F47002491EAF
:100B2000C9B242EA0151C16210BD0000FFFEF0FFF0
:100B3000FDF7F1FF70B5072409290AD9C568A1F1AD
:100B40000A0606EB4606B440A543B3401D43C56004
:100B500007E0056901EB4106B440A543B3401D43DE
:100B600005611F23072A09D2446B521E02EB820241
:100B700093409C4391400C43446370BD0D2A09D2BD
:100B8000046BD21F02EB820293409C4391400C43C2
:100B9000046370BDC46A0D3A02EB820293409C4329
:100BA00091400C43C46270BD816841F008018160CE
:100BB0007047816841F00401816070472DE9FC5F56
:100BC000F84D002495F83902DFF8DCB30F2804D083
:100BD00095F83902F02805D008E0B5F8EC01ABF83B
:100BE0000C0003E0B5F8EC11ABF80C10B5F8E80117
:100BF00040F642614FF0000A884205D307F04CFCF2
:100C000001208BF806000DE09BF80600012809D1B1
:100C1000B5F8E82140F62E60824203D88BF806A092
:100C200007F045FCE1480C26007810B9DF48417E0A
:100C300029B3FF2785F838720AF04AF90AF054F907
:100C4000CDF800A08DF80060CDF804A08DF80170FB
:100C500095F81F12D648007800EB0110D5498DF8A1
:100C60000200012008708BF802009BF80100A8B96F
:100C7000002301220321684605F0AEF80EE041781A
:100C800009B9817E09B10F2006E0817809B9C07EDB
:100C900008B1F02000E0504685F838020AF0C0F9AB
:100CA00010B90AF0CFF9E8B38BF801A005F052FBB8
:100CB000C14F2021384606F030F90646102138464B
:100CC00006F032F986420AD08021384606F025F92E
:100CD00006464021384606F027F986425CD1564642
:100CE000CDF800A020213846CDF804A006F015F973
:100CF0001021384606F018F98021384606F00DF923
:100D00004021384606F010F99BF807105846491C58
:100D1000C9B28BF8071014293ED3C67103218DF890
:100D2000001000E011E0FF218DF8011095F81F225E
:100D30009F49097801EB02118DF802109D490222AA
:100D40000A709BF8000008B326E0CDF800A08DF8EB
:100D50000060FF20CDF804A08DF8010095F81F0277
:100D60009349097801EB001092498DF802000120A7
:100D700008708BF802009BF80100002896D1002330
:100D800001220321684605F027F88FE7002302229D
:100D90000821684605F020F804EB840000EBC4014C
:100DA000864800EB01108146B0F86210DFF810822F
:100DB00004EB440708EBC706B6F90A00814278DB6A
:100DC00008F53D6101204881A1F5186111F837202F
:100DD000521C12F0FF0201F8372069D001F837A049
:100DE00001EBC701C4EBC40081F802A081F810A098
:100DF00000EB400108F29740012242540844417838
:100E0000012915D180F801A06E48F0210172DBF8AC
:100E10001C300121A140D3F800C02CEA010CC3F81A
:100E200000C0047104EB840108F2656000F821A0A1
:100E30000AF04EF80AF058F863484188491C71815D
:100E4000008C30816148F02280F807A0027295F88A
:100E50001F32574A127802EB0312427280F80AA03E
:100E60000822827180F805A00471524880F800A021
:100E7000DBF81800006805F029F84C490877DBF822
:100E80001800006805F022F870B9DBF8180001219D
:100E9000A14002680A4302604C4890F9043042794C
:100EA0008179C01D04F098FFDBF8180073E000E0C2
:100EB00076E0B9F86210B6F90800814271DB444867
:100EC0000123A0F51862038102EBC7008178491C59
:100ED00011F0FF01817063D080F802A002F837A002
:100EE00080F810A0C4EBC40000EB400002F24722DF
:100EF00000EB020C9E468CF80130135C5146012B2E
:100F000012D111543148F0220EFA04FC0272DBF8BF
:100F10001820136823EA0C03136004712D4804EBB6
:100F2000840200EB82004170274802887281408C65
:100F3000401C30812348F022C171027295F81F32A3
:100F40001B4A127802EB03124272817208218171EE
:100F500001214171047117480170DBF81C00006821
:100F600004F0B4FF11498877DBF81C00006804F036
:100F7000ADFF70B9DBF81C100122A24008681043D5
:100F80000860104890F9043042798179C01D04F05E
:100F900023FFDBF81C000122A2400168114301601D
:100FA0007EE019E064920020C4000020E8AE00203A
:100FB00080000020810000200008014064820020A1
:100FC00088AA002065C1002098AC002056C10020EE
:100FD00058B60020EDB00020FE49524601EBC70094
:100FE00080F802A001F837A0017C491C11F0FF0134
:100FF000017455D00274C4EBC400F74900EB400003
:101000000090085C924601281FD1DBF818000068A8
:1010100004F05CFFF049F04A373908770099F02076
:1010200002F801A0ED4A0121A1401072DBF818007E
:1010300003688B430360E74814714038E84900882F
:1010400004EB8402708101F822A0E348009908446F
:1010500000904078012823D1DBF81C00006804F0E0
:1010600035FFDD49DF4A37394FF0010C88770098AA
:101070000CFA04FC514680F801A0F0201072DBF855
:101080001C00036823EA0C030360D2481471403843
:1010900004EB8402008C3081D14800EB8200417067
:1010A000B9F86410B6F90E0081427CDCB9F864002E
:1010B000F0B3CD480122C281C64800EBC700417899
:1010C000491C11F0FF0141706CD080F801A080F83C
:1010D00003A080F811A0C4EBC40000EB4002BE489E
:1010E000012110448170C178012914D1BF4A80F8D0
:1010F00003A0F0201072DBF82C000123A34002684B
:101100009A430260B74804EB84020471B44800EBD0
:10111000820080F802A009F0DBFE09F0E5FEAD4890
:101120004038C188491EF181808CB081012100E0E6
:1011300039E0AF48C171F021017295F81F22AD4925
:10114000097801EB0211417280F80AA0082282712D
:1011500080F805A00471A84880F800A0DBF82800FA
:10116000006804F0B3FE9C4937394877DBF8280063
:10117000006804F0ABFE70B9DBF828100120A04035
:101180000A6802439A480A6090F9043042798179EA
:10119000C01D04F021FEDBF828000121A1400268F7
:1011A0000A430260E2E0B9F86400B6F90C10884224
:1011B00070DC8D4801228281864800EBC701C87827
:1011C000401C10F0FF00C87062D081F801A081F8C7
:1011D00003A081F811A0C4EBC40101EB41037E49D7
:1011E00050461944CA708B78012B13D188708049FE
:1011F000F02302FA04FC0B72DBF828100B6823EAD8
:101200000C030B60754904EB84030C71744901EB0A
:101210008301C8706F49012240398B88F381C98CE2
:10122000491EB1817149F023CA710B7295F81FC232
:10123000704B1B7803EB0C134B728872082088717B
:101240006D484A710C710270DBF82C00006804F0E4
:101250003DFE61493739C877DBF82C00006804F09F
:1012600035FE70B9DBF82C000122A2400168114361
:1012700001605E4890F9043042798179C01D04F024
:10128000ABFDDBF82C100122A24008681043086077
:101290006CE0FFE74F48514600EBC700019080F833
:1012A00001A080F803A0427C521C12F0FF0242749D
:1012B0005CD08A460199C4EBC40081F811A000EB10
:1012C0004001454808440090C078012826D1DBF849
:1012D0002C00006804F0FAFD3F49444B3739C877C9
:1012E0000199504681F811A0009981F803A0F021DE
:1012F0001972DBF82C200121A140D2F800C02CEAA1
:10130000010C3449C2F800C040391C71898CB1818C
:10131000334904EB840201EB8201C87000988078A5
:10132000012823D1DBF82800006804F0CFFD2A490A
:101330002F4A3739012348770098A340514680F857
:1013400002A0F0201072DBF82800D0F800C02CEAD0
:10135000030CC0F800C01F481471403804EB84022D
:101360008088F0811E4800EB82008170B9F96C0022
:10137000B6F9021088427DDB1B48012242801548E5
:1013800000EBC7000179491C11F0FF01017172D017
:1013900080F804A080F806A080F812A0C4EBC40076
:1013A00000EB40020C4801211044017141790129F0
:1013B0002DD1124B80F805A0F0201872DBF8240024
:1013C0000122A240D0F800C02CEA020CC0F800C0F4
:1013D0001C7115E0D8AC00201FAF002056C10020C2
:1013E000EDB0002065C1002058B6002083C1002068
:1013F00074C100208000002081000020A1C10020D5
:10140000FF4804EB840200EB820080F804A009F09E
:101410005FFD09F069FDFB484189491C7180008D21
:1014200028F83700DFF8E083022188F80710F02160
:1014300088F8081095F81F12F44AF548127802EB64
:10144000011188F8091088F80AA0082288F80620F7
:1014500088F805A088F8044080F800A0DBF8200098
:10146000006804F033FDEB4981F82000DBF8200030
:10147000006801E01AE098E004F028FD80B9DBF88C
:1014800020200121A14010680843106098F9043021
:1014900098F8052098F8061008F1070004F09CFC65
:1014A000DBF820100120A0400A687CE0B9F96C103C
:1014B000D94830F93700814279DBD84801220280CF
:1014C000A0F5186000EBC7008179491C11F0FF01FD
:1014D00081716AD080F804A080F806A080F812A07C
:1014E000C4EBC40000EB4003CA48964637301844AA
:1014F000514642710279012A15D1C34B0171F02086
:101500001872DBF820000EFA04F8D0F800C02CEABC
:10151000080CC0F800C01C71B94804EB840300EB50
:10152000830080F805E0B748BB4A03897380408D8B
:10153000401C22F83700BA480222C271F02202721F
:1015400095F81F32B14AF046127802EB031242724C
:1015500081720821817180F805E00471AC4880F83F
:1015600000E0DBF82400006804F0B0FCA94981F831
:101570002200DBF82400006804F0A8FC70B9DBF856
:10158000240008FA04F102680A430260A44890F9B2
:10159000043042798179C01D04F01EFCDBF8241070
:1015A00008FA04F00A6802430A6064E0FFE795491C
:1015B0005046403101EBC70181F804A081F806A034
:1015C0008A7C521C12F0FF028A7454D082468874BE
:1015D000C4EBC40000EB40018E48373001EB00083B
:1015E00098F80400012821D1DBF82000006804F0FD
:1015F0006DFC88494FF0010C0CFA04FC81F82000C6
:10160000814888F804A0F0210172DBF820105246CE
:101610000B6823EA0C030B6004717A4804EB840125
:1016200000897080764800EB8100027198F805000F
:10163000012820D1DBF82400006804F047FC75493C
:10164000774B012281F8220088F805A0F02018725B
:10165000DBF82400A24001689143016069481C71D5
:1016600004EB8402018D6C4820F83710644800EBCD
:10167000820080F805A0B9F96E00B6F9061088421C
:1016800071DC66480121C180A0F5186000EBC7003D
:101690004279521C12F0FF02427162D080F805A01C
:1016A00080F807A080F813A0C4EBC40000EB400250
:1016B000584888463730104457468171C17901290E
:1016C00011D1584AC771F0201072DBF8340008FAC3
:1016D00004F103688B430360494804EB840100EB89
:1016E00081001471877109F0F3FB09F0FDFB454897
:1016F000C189491EF180808DB0804B4E0320F0716E
:10170000F020307295F81F124048007800EB01106D
:101710007072B7720820B0713D48777134710770EC
:10172000DBF830005F46006804F0D0FB394981F8EF
:101730002100386B006804F0C9FB60B9396B08FA06
:1017400004F00A6802430A6096F904307279B179AC
:10175000F01D04F041FB3A6B08FA04F110680843ED
:101760001060EEE0FFE7B9F96E00B6F904108842A8
:101770007EDC2A4801228280A0F5186000EBC700B9
:10178000C179491C11F0FF01C17172D080F807A026
:1017900080F805A080F813A0C4EBC40000EB400360
:1017A0001C48514637301844C2718379012B12D13D
:1017B00081711D48F02302FA04FC0372DBF830301B
:1017C0001F6827EA0C071F6004710D4804EB8403AF
:1017D00000EB8300C1710B488389F380C08D401EEC
:1017E000B080104E0320F071F020307295F81F3257
:1017F0000648007800EB03107072B172082015E003
:10180000EDB0002098AC002092C1002080000020A4
:1018100081000020E8AE002088AA002058B60020F1
:10182000A1C10020BFC10020B0C10020B071727101
:1018300090463471FE495F460A70DBF83400006858
:1018400004F044FBFB4981F82300786B006804F046
:101850003DFB60B9786B08FA04F102680A43026044
:1018600096F904307279B179F01D04F0B5FA01E00F
:1018700007E066E0786B08FA04F102680A43026048
:101880005FE0ED48514600EBC70080F807A080F804
:1018900005A0C27C521C12F0FF02C27451D0C17468
:1018A0008946C4EBC40000EB4001E248373001EB4D
:1018B000000898F8060001281FD1DBF830005F46C9
:1018C000006804F003FBDB49DC4B4A4681F8210049
:1018D00088F80690F0201872386B0121A140076843
:1018E0008F430760D4481C71403804EB8401808921
:1018F000F080D34800EB8100827198F8070001283E
:101900001FD1DBF834005F46006804F0DFFAC949F4
:101910000123A34081F82300CA4988F80790F020EA
:101920000872786B4A4607689F430760C2480C718B
:10193000403804EB8401808DB080C14800EB810009
:10194000C271641CE4B2162CFFF426AADBF818005E
:101950005C46006804F0BAFA0646206A006804F0A3
:10196000B5FA0644A06A006804F0B0FA0644206B99
:10197000006804F0ABFA3044B34EDFF8D092DFF8E1
:10198000B4823178084499F800100844B0490978C5
:10199000084488F80000E069006804F097FA0746F8
:1019A000606A006804F092FA0744E06A006804F094
:1019B0008DFA0744606B006804F088FAA549384442
:1019C0000978084388F80100A348006804F07EFA0B
:1019D0000446A1480830006804F078FA04449E48A0
:1019E0001030006804F072FA04449B481830006814
:1019F00004F06CFA21183078084499F80010084473
:101A000088F819009448001D006804F05FFA044645
:101A100091480C30006804F059FA04448E481430A0
:101A2000006804F053FA04448B481C30006804F04A
:101A30004DFA31782044084499F80010084488F899
:101A40001A00B5F90802642190FBF1F2DFF80C826C
:101A50008648DFF80C92B8F90030824FDFF808B200
:101A600000F115069A4252DB73490A7B521C12F0B0
:101A7000FF020A737ED081F80CA081F80EA081F8D5
:101A800016A081F80DA081F80FA081F817A0012100
:101A90000173427B5446012A0CD144737448644A52
:101AA000234604720471117042798179C01D04F0DB
:101AB00093F9347309F00CFA09F016FA5E484038CD
:101AC000428BA8F80020028FA9F80020818B398072
:101AD000808FABF8000067480621C171FF210172B9
:101AE00095F81F226449524B097801EB02114172AB
:101AF0008472C472047344738473082181714471C5
:101B000004711C702246337BE0E013463DE1B5F9D9
:101B10000822B9F9003092FBF1F29A4253DB4649B0
:101B20008A7B521C12F0FF028A73A3D081F80CA0AA
:101B300081F80EA081F816A081F80DA081F80FA001
:101B4000544681F817A04FF0010A80F80DA0017BE0
:101B500001290CD1047347483549234604720471A6
:101B60000C7042798179C01D04F036F974733248E3
:101B7000403800E0ADE0018BA8F80010428FA9F8D2
:101B80000020818B3980808FABF800003848062117
:101B9000C171FF21017295F81F2237492346097848
:101BA00001EB021141728472C47204734473847332
:101BB0000821817180F805A004711D4C524684F8FB
:101BC00000A0747BDFE0B5F9082292FBF1F3254A0F
:101BD000B2F9002093427DDC17494A7B521C12F077
:101BE000FF024A7375D081F80CA081F80EA081F82D
:101BF00016A081F80DA081F80FA081F817A001218F
:101C00008173C27B5446012A0CD1C4731B48084A15
:101C1000234604720471117042798179C01D04F069
:101C2000DBF8B47309F054F909F05EF9024927E0D2
:101C300081000020E8AE0020D8AC0020B0C1002018
:101C4000EDB00020BFC10020780000207900002006
:101C50009E0000209F00002000010020580100206D
:101C60005A0100205C0100205E01002073B40020B6
:101C7000DDC10020CEC1002080000020FBC100207B
:101C80004039088BA8F800000A8F4348A9F80020C3
:101C9000CA8B0280888FABF8000040480721C171D1
:101CA000FF21017295F81F223D493E4B097801EB57
:101CB000021141728472C4720473447384730821E4
:101CC0008171447104711C70B37B2246002B3FF478
:101CD0001CAF00E001E0BDE8FC9FB5F9082292FBD3
:101CE000F1F2BBF900108A42F3DC2F49CA7B521C87
:101CF00012F0FF02CA73ECD081F80CA081F80EA09C
:101D000081F816A081F80DA081F80FA081F817A026
:101D10000127C773817B544601290CD184731F4866
:101D2000204A234604720471177042798179C01DDC
:101D300004F052F8F4731C484038018BA8F80010E6
:101D4000028FA9F80020144A818B1180C08FABF854
:101D5000000016480721C171FF21017295F81F127A
:101D60000F4A2346127802EB011141728472C47249
:101D70000473447384730821817147710471094CA1
:101D80003A462770F47B002CA3D102B0C01DBDE8F9
:101D9000F05F04F021B800005C010020ECC10020DD
:101DA0008000002081000020D8AC0020FBC1002072
:101DB0002DE9F041DFF8C883D8F81800006804F076
:101DC00085F8F04D01260027A5F29474012809DB5F
:101DD000D8F81800006804F079F8217F884202D012
:101DE0002E7000E02F70D8F81C00006804F06EF828
:101DF000012809DBD8F81C00006804F067F8A17F0F
:101E0000884202D06E7000E06F70D8F82000006841
:101E100004F05CF801280ADBD8F82000006804F020
:101E200055F894F82010884202D0AE7000E0AF70F0
:101E3000D8F82400006804F049F801280ADBD8F833
:101E40002400006804F042F894F82210884202D07E
:101E5000EE7000E0EF70D8F82800006804F036F863
:101E6000012809DBD8F82800006804F02FF8617F0A
:101E7000884202D02E7100E02F71D8F82C00006843
:101E800004F024F8012809DBD8F82C00006804F0DD
:101E90001DF8E17F884202D06E7100E06F71D8F8C2
:101EA0003000006804F012F801280ADBD8F830008E
:101EB000006804F00BF894F82110884202D0AE714B
:101EC00000E0AF71D8F83400006803F0FFFF01288C
:101ED0000ADBD8F83400006803F0F8FF94F8231008
:101EE000884202D0EE7100E0EF71DFF8948208F1D1
:101EF0003808D8F8000003F0E9FF01280FDBD8F814
:101F0000000003F0E3FF94F82810884208D02E72F6
:101F1000D8F8000003F0DAFF84F8280000E02F7200
:101F2000DFF86482D8F8000003F0D0FF01280FDB4F
:101F3000D8F8000003F0CAFF94F82910884208D0AE
:101F40006E72D8F8000003F0C1FF84F8290000E0A9
:101F50006F72DFF82C8208F17008D8F8000003F0E7
:101F6000B5FF884D0A35012809DBD8F8000003F0D9
:101F7000ADFF94F83610884202D02E7000E02F702A
:101F8000DFF8FC8108F13C08D8F8000003F09EFF60
:101F9000012809DBD8F8000003F098FF94F82A1014
:101FA000884202D06E7000E06F70DFF8D48108F1D3
:101FB0004C08D8F8000003F089FF012809DBD8F8A5
:101FC000000003F083FF94F82B10884202D0AE701B
:101FD00000E0AF70DFF8A88108F14408D8F80000ED
:101FE00003F074FF012809DBD8F8000003F06EFF4E
:101FF00094F82E10884202D0EE7000E0EF70DFF807
:10200000808108F15408D8F8000003F05FFF012830
:1020100009DBD8F8000003F059FF94F82F1088422C
:1020200002D02E7100E02F71DFF8548108F14008D2
:10203000D8F8000003F04AFF012809DBD8F80000B7
:1020400003F044FF94F82C10884202D06E7100E037
:102050006F71DFF82C8108F15008D8F8000003F008
:1020600035FF012809DBD8F8000003F02FFF94F8B2
:102070002D10884202D0AE7100E0AF71DFF8008110
:1020800008F14808D8F8000003F020FF012809DD16
:10209000D8F8000003F01AFF94F83010884202D0FC
:1020A000EE7100E0EF71DFF8D88008F15808D8F839
:1020B000000003F00BFF012809DBD8F8000003F053
:1020C00005FF94F83110884202D02E7200E02F7282
:1020D000DFF8AC8008F15C08D8F8000003F0F6FEE9
:1020E000012809DBD8F8000003F0F0FE94F8321064
:1020F000884202D06E7200E06F72DFF8848008F1CF
:102100006408D8F8000003F0E1FE012809DBD8F8E4
:10211000000003F0DBFE94F83310884202D0AE7268
:1021200000E0AF72DFF8588008F16008D8F80000CE
:1021300003F0CCFE012809DBD8F8000003F0C6FE4E
:1021400094F83410884202D0EE7200E0EF72DFF8AB
:10215000308008F16808D8F8000003F0B7FE0128C5
:1021600009DBD8F8000003F0B1FE94F8351088427E
:1021700002D02E7300E02F73BDE8F04107F06CBD74
:10218000C40000207CB60020940000202DE9F04F10
:10219000B24E85B00024B248002500EB0410049034
:1021A000B04800EB041BB04800EB041AAF4800EB4A
:1021B0000419AF4800EB0418AE4800EB041704986C
:1021C000405D012831D1AC4800EB0410405D60BB9C
:1021D0000D208DF80700FF208DF8080096F81F12DB
:1021E000A648002263B200788DF80C2000EB0110A5
:1021F0008DF80900601C8DF80A00681C8DF80B0032
:102200009F488DF80D2000EB04100821405D8DF8EB
:102210000E008DF806109B488DF805208DF80430CF
:1022200002700DF1070003F0D7FD1BF8050001282F
:1022300030D1954800EB0410405D58BB0D200022C2
:102240008DF807008DF8082096F81F128B4863B2AE
:1022500000788DF80C2000EB01108DF80900601C4F
:102260008DF80A00681C8DF80B0085488DF80D204C
:1022700000EB04100821405D8DF80E008DF806106B
:1022800080488DF805208DF8043002700DF10700AC
:1022900003F0A2FD1AF80500012832D17B4800EBBB
:1022A0000410405D68BB0D208DF80700FF208DF8FD
:1022B000080096F81F127148012263B2007800EB03
:1022C00001108DF80900601C8DF80A00681C8DF85B
:1022D0000B0000208DF80C008DF80D006C480821D3
:1022E00000EB0410405D8DF80E008DF80610654877
:1022F0008DF805208DF8043002700DF1070003F011
:102300006BFD19F80500012831D1624800EB04107B
:10231000405D60BB0D208DF8070000208DF808009F
:1023200096F81F22554963B209788DF80C0001EB2D
:1023300002118DF80910611C8DF80D008DF80A103E
:102340005348691C8DF80B1000EB04100821405D08
:102350008DF80E008DF8061001224A488DF80520F0
:102360008DF8043002700DF1070003F035FD18F808
:102370000500012832D1484800EB0410405D68BBDD
:1023800005208DF80700FF208DF8080096F81F1231
:102390003A48022263B2007800EB01108DF8090080
:1023A000601C8DF80A00681C8DF80B0000208DF869
:1023B0000C008DF80D003948082100EB0410405D39
:1023C0008DF80E008DF806102E488DF805208DF83A
:1023D000043002700DF1070003F0FEFC785D012867
:1023E00031D12F4800EB0410405D60BB05208DF813
:1023F000070000208DF8080096F81F221F4963B2DD
:1024000009788DF80C0001EB02118DF80910611CA0
:102410008DF80D008DF80A102048691C8DF80B10FE
:1024200000EB04100821405D8DF80E008DF80610B9
:10243000022214488DF805208DF8043002700DF149
:10244000070003F0C9FC6D1C102DFFF6B8AE641C2C
:10245000162CFFF6A0AE05B0BDE8F08F6492002008
:10246000C0980020209A0020809B0020E09C002043
:1024700060A20020C0A30020A094002080000020C3
:10248000A09F002081000020409E00200096002098
:1024900000A100206097002020A50020E0A70020D8
:1024A00080A600202DE9FF5FFB480027006803F0AD
:1024B0000DFDFB4DF94E0124B9464FF0080A4FF0CF
:1024C000FF3805F6850B012801DB2C603BE028680E
:1024D000012838D10C208DF80700F0208DF8080075
:1024E00096F81F12EF4802224346007800EB0110D5
:1024F0008DF80900E8488DF80A4000688DF80B0057
:10250000010A8DF80C10010C8DF80D10000E8DF8DD
:102510000E008DF806A0E4488DF805208DF80480A3
:10252000027051460DF1070003F056FC5846C5F8FD
:10253000009000BFC7EBC70101EB410101447F1CC4
:10254000CC74162FF6DBD4483438006803F0BEFC98
:10255000012801DB6C603BE06868012838D1F0207D
:102560008DF807908DF8080096F81F124F46CD4859
:1025700043463A46007800EB01108DF80900C64842
:102580008DF80A40343800688DF80B00010A8DF888
:102590000C10010C8DF80D10000E8DF80E008DF84A
:1025A00006A0C1488DF805708DF80480077051466B
:1025B0000DF1070003F010FC00205946C5F8047027
:1025C000C0EBC00202EB4202401C8C541628F7DB21
:1025D000B14F243F386803F079FC012801DBAC607F
:1025E0003BE0A868012838D1F0208DF807408DF82D
:1025F000080096F81F12AB484346007800EB011024
:102600008DF809008DF80A4038688DF80B00010A32
:102610008DF80C10010C8DF80D10000E8DF80E00C9
:102620008DF806A0A0488DF805908DF804804F46DF
:1026300080F8009051463A460DF1070003F0CCFBBC
:1026400000205946C5F80870C0EBC00202EB4202F8
:102650000A44401C94701628F6DB8F4F2C3F3868D4
:1026600003F034FC012801DBEC603CE0E868012861
:1026700039D102208DF80700F0208DF8080096F877
:102680001F1288484346007800EB01108DF80900BE
:102690008DF80A4038688DF80B00010A8DF80C108F
:1026A000010C8DF80D10000E8DF80E008DF806A0AF
:1026B0007D488DF805908DF804804F4680F8009095
:1026C00051463A460DF1070003F086FB00205946BB
:1026D000C5F80C70C0EBC00202EB42020A44401C79
:1026E00014711628F6DB6C4F1C3F386803F0EEFBC4
:1026F000012801DB2C613CE02869012839D1032045
:102700008DF80700F0208DF8080096F81F12654834
:102710004346007800EB01108DF809008DF80A405F
:1027200038688DF80B00010A8DF80C10010C8DF83B
:102730000D10000E8DF80E008DF806A05A488DF889
:1027400005908DF804804F4680F8009051463A4637
:102750000DF1070003F040FB00205946C5F810704A
:10276000C0EBC00202EB42020A44401C94711628DE
:10277000F6DB49483038006803F0A8FB012801DB8C
:102780006C613CE06869012839D1F0208DF8079030
:102790008DF8080096F81F124F46424822464346DD
:1027A000007800EB01108DF809003B488DF80A40D5
:1027B000303800688DF80B00010A8DF80C10010C00
:1027C0008DF80D10000E8DF80E008DF806A036481D
:1027D0008DF805408DF80480027051460DF1070018
:1027E00003F0FAFA00205946C5F81470C0EBC00295
:1027F00002EB42020A44401C54701628F6DB264FB6
:10280000203F386803F062FB012801DBAC613AE04D
:10281000A869012837D1F0208DF807408DF808000D
:1028200096F81F1222461F484346007800EB01101D
:102830008DF809008DF80A4038688DF80B00010A00
:102840008DF80C10010C8DF80D10000E8DF80E0097
:102850008DF806A014488DF805208DF804800270CC
:1028600051460DF1070003F0B7FA00205946C5F8AC
:10287000189000BFC0EBC00202EB42020A44401CA9
:10288000D4701628F6DB044F283F386803F01EFB8F
:1028900001280BDBEC6144E034010020649200204D
:1028A00020AA00208000002081000020E869012883
:1028B00037D102208DF80700F0208DF8080096F837
:1028C0001F12C54822464346007800EB01108DF8E0
:1028D00009008DF80A4038688DF80B00010A8DF860
:1028E0000C10010C8DF80D10000E8DF80E008DF8F7
:1028F00006A0BA488DF805408DF804800470514652
:102900000DF1070003F068FA00205946C5F81C9045
:10291000C0EBC00202EB42020A44401C547116286C
:10292000F6DBAF4F386803F0D1FA012801DB2C62E7
:102930003BE0286A012838D103208DF80700F020F9
:102940008DF8080096F81F12A348224643460078E7
:1029500000EB01108DF809008DF80A4038688DF8F9
:102960000B00010A8DF80C10010C8DF80D10000EF3
:102970008DF80E008DF806A098488DF805408DF86A
:102980000480047051460DF1070003F025FA002081
:102990005946C5F8209000BFC0EBC00202EB4202CE
:1029A0000A44401CD4711628F6DB8D4F3F1D386851
:1029B00003F08CFA012801DB6C623CE0686A0128B4
:1029C00039D106208DF80700F0208DF8080096F820
:1029D0001F1281484346007800EB01108DF8090072
:1029E0008DF80A4038688DF80B00010A8DF80C103C
:1029F000010C8DF80D10000E8DF80E008DF806A05C
:102A000076488DF805908DF804804F4680F8009048
:102A100051463A460DF1070003F0DEF90020594611
:102A2000C5F82470C0EBC00202EB42020A44401C0D
:102A300014731628F6DB6A4F0C37386803F046FA31
:102A4000012801DBAC623CE0A86A012839D10720EB
:102A50008DF80700F0208DF8080096F81F125E48E8
:102A60004346007800EB01108DF809008DF80A400C
:102A700038688DF80B00010A8DF80C10010C8DF8E8
:102A80000D10000E8DF80E008DF806A053488DF83D
:102A900005908DF804804F4680F8009051463A46E4
:102AA0000DF1070003F098F900205946C5F8287089
:102AB000C0EBC00202EB42020A44401C9473162889
:102AC000F6DB474F0837386803F000FA012801DBCE
:102AD000EC623AE0E86A012837D106208DF8070059
:102AE000F0208DF8080096F81F123B482246434616
:102AF000007800EB01108DF809008DF80A40386865
:102B00008DF80B00010A8DF80C10010C8DF80D10DA
:102B1000000E8DF80E008DF806A030488DF80540A7
:102B20008DF80480047051460DF1070003F054F94C
:102B300000205946C5F82C90C0EBC00202EB4202BF
:102B40000A44401C54731628F6DB254F10373868AA
:102B500003F0BCF9012802DB2C63BDE8FF9F286B62
:102B60000128FAD107208DF80700F0208DF8080021
:102B700096F81F12184822464346007800EB0110D1
:102B80008DF809008DF80A4038688DF80B00010AAD
:102B90008DF80C10010C8DF80D10000E8DF80E0044
:102BA0008DF806A00D488DF805408DF8048004705E
:102BB00051460DF1070003F00FF900205946C5F802
:102BC000309000BFC0EBC00202EB42020A44401C3E
:102BD000D4731628F6DBC0E78000002081000020B7
:102BE0001C0100202DE9FF5FFF4800273C460068DC
:102BF00003F06CF90C210025DFF8F4B3FB4E01283B
:102C00004FF001094FF0080A4FF0FF38584633DB08
:102C1000C7EBC70202EB420202447F1CD27C162F94
:102C20001444F5DB002C64DDF24802220270F0202F
:102C30008DF807108DF8080096F81F12EE484346ED
:102C4000007800EB01108DF80900E7488DF80A9034
:102C500000688DF80B00010A8DF80C10010C8DF83E
:102C60000D108DF806A0000E8DF805208DF80E00D1
:102C700051468DF8048036E0C7EBC70202EB4202F2
:102C800002447F1CD27C162F1444F5DBDB48002C59
:102C90002EDD008B01282CD1F0208DF807108DF847
:102CA000080096F81F12D4484346007800EB011044
:102CB0008DF80900CC488DF80A9000688DF80B005B
:102CC000010A8DF80C10010C000E8DF80D108DF816
:102CD0000E008DF806A00222C6488DF805208DF85A
:102CE0000480514602700DF1070003F075F800E012
:102CF0000583BD4F343F386803F0E8F801284FF0F2
:102D0000000059460CDB00BFC0EBC00202EB4202E0
:102D1000401C8A5C16281444F6DB002C0FDC3AE0D9
:102D2000C0EBC00202EB4202401C8A5C162814442D
:102D3000F6DBB248002C2DDD408901282BD1F02094
:102D40008DF807508DF8080096F81F122A46AA48F9
:102D50004346007800EB01108DF809008DF80A90C9
:102D600038688DF80B00010A8DF80C10010C8DF8F5
:102D70000D10000E8DF80E008DF806A09D488DF800
:102D800005208DF80480027051460DF1070003F014
:102D900023F800E04581944F243F386803F096F80B
:102DA00001284FF0000059460DDB00BFC0EBC00208
:102DB00002EB42020A44401C927816281444F5DBC8
:102DC000002C10DC3BE0C0EBC00202EB42020A44E4
:102DD000401C927816281444F5DB8848002C2DDD21
:102DE000C08901282BD1F0218DF807908DF80810AB
:102DF00096F81F2280494346097801EB02118DF8AD
:102E000009108DF80A9038688DF80B00010A8DF8CA
:102E10000C10010C8DF80D10000E8DF80E008DF8C1
:102E200006A074488DF805508DF804800570514651
:102E30002A460DF1070002F0CFFF00E0C5816A4F7E
:102E40002C3F386803F042F801284FF00000594643
:102E50000DDB00BFC0EBC00202EB42020A44401C83
:102E6000127916281444F5DB002C10DC3CE0C0EB92
:102E7000C00202EB42020A44401C12791628144494
:102E8000F5DB5E48002C2EDD408801282CD1022085
:102E90008DF80700F0208DF8080096F81F125648AC
:102EA0002A464346007800EB01108DF809008DF8A2
:102EB0000A9038688DF80B00010A8DF80C10010C8F
:102EC0008DF80D10000E8DF80E008DF806A0494803
:102ED0008DF805508DF80480057051460DF10700FE
:102EE00002F07AFF00E045803F4F1C3F386802F057
:102EF000EDFF01284FF0000059460CDBC0EBC0028B
:102F000002EB42020A44401C927916281444F5DB75
:102F1000002C10DC3CE0C0EBC00202EB42020A4491
:102F2000401C927916281444F5DB3448002C2EDD21
:102F3000C08801282CD103208DF80700F0208DF8DF
:102F4000080096F81F122C482A464346007800EBEA
:102F500001108DF809008DF80A9038688DF80B0083
:102F6000010A8DF80C10010C8DF80D10000E8DF873
:102F70000E008DF806A01F488DF805508DF80480CE
:102F8000057051460DF1070002F026FF00E0C580F4
:102F9000154F303F386802F099FF01284FF00000CC
:102FA00059460CDBC0EBC00202EB42020A44401C53
:102FB000527816281444F5DB002C10DC4AE0C0EBF4
:102FC000C00202EB42020A44401C52781628144404
:102FD000F5DB0A48002C3CDD008901283AD18DF848
:102FE0000750F0200CE00000340100206492002023
:102FF000A5B2002081000020800000203EB6002005
:103000008DF8080096F81F12FE484A46434600789D
:1030100000EB01108DF809008DF80A9038688DF8E2
:103020000B00010A8DF80C10010C8DF80D10000E2C
:103030008DF80E008DF806A0F3488DF805908DF8F8
:10304000048080F8009051460DF1070002F0C4FEA4
:1030500000E00581ED4F386802F038FF01284FF09D
:10306000000059460DDB00BFC0EBC00202EB42027C
:103070000A44401CD27816281444F5DB002C10DCDE
:103080003BE0C0EBC00202EB42020A44401CD27893
:1030900016281444F5DBDE48002C2DDD808901283C
:1030A0002BD1F0208DF807908DF8080096F81F12AC
:1030B0004A46D4484346007800EB01108DF80900D9
:1030C0008DF80A9038688DF80B00010A8DF80C1005
:1030D000010C8DF80D10000E8DF80E008DF806A075
:1030E000C9488DF805208DF80480027051460DF115
:1030F000070002F071FE00E08581C44F083F386888
:1031000002F0E4FE01284FF0000059460DDB00BF3D
:10311000C0EBC00202EB42020A44401C527916285E
:103120001444F5DB002C10DC3DE0C0EBC00202EBE8
:1031300042020A44401C527916281444F5DBB44874
:10314000002C2FDD008801282DD102208DF80700EA
:10315000F0208DF8080096F81F12AA484A46434608
:10316000007800EB01108DF809008DF80A9038689E
:103170008DF80B00010A8DF80C10010C8DF80D1064
:10318000000E8DF80E008DF806A09F488DF8059072
:103190008DF8048080F8009051460DF1070002F090
:1031A0001BFE00E00580994F0837386802F08EFE5C
:1031B00001284FF0000059460DDB00BFC0EBC002F4
:1031C00002EB42020A44401CD27916281444F5DB73
:1031D000002C10DC3DE0C0EBC00202EB42020A44CE
:1031E000401CD27916281444F5DB8948002C2FDDC9
:1031F000808801282DD103208DF80700F0208DF85C
:10320000080096F81F127F484A464346007800EBB4
:1032100001108DF809008DF80A9038688DF80B00C0
:10322000010A8DF80C10010C8DF80D10000E8DF8B0
:103230000E008DF806A074488DF805908DF8048076
:1032400080F8009051460DF1070002F0C5FD00E046
:1032500085806E4F0C37386802F038FE01284FF039
:10326000000059460DDB00BFC0EBC00202EB42027A
:103270000A44401C127B16281444F5DB002C10DC99
:103280003CE0C0EBC00202EB42020A44401C127B4D
:1032900016281444F5DB5E48002C2EDD008A012838
:1032A0002CD106208DF80700F0208DF8080096F844
:1032B0001F1254482A464346007800EB01108DF84F
:1032C00009008DF80A9038688DF80B00010A8DF816
:1032D0000C10010C8DF80D10000E8DF80E008DF8FD
:1032E00006A049488DF805508DF8048005705146B8
:1032F0000DF1070002F070FD00E00582434F143726
:10330000386802F0E3FD01284FF0000059460CDB5D
:10331000C0EBC00202EB42020A44401C927B16281A
:103320001444F5DB002C10DC3CE0C0EBC00202EBE7
:1033300042020A44401C927B16281444F5DB3448B0
:10334000002C2EDD808A01282CD107208DF8070063
:10335000F0208DF8080096F81F122A482A464346A6
:10336000007800EB01108DF809008DF80A9038689C
:103370008DF80B00010A8DF80C10010C8DF80D1062
:10338000000E8DF80E008DF806A01F488DF8055030
:103390008DF80480057051460DF1070002F01CFD08
:1033A00000E08582194F1037386802F08FFD012840
:1033B0004FF0000059460CDBC0EBC00202EB4202AA
:1033C0000A44401C527B16281444F5DB002C10DC08
:1033D00046E0C0EBC00202EB42020A44401C527BB2
:1033E00016281444F5DB0A48002C38DD408A0128F1
:1033F00036D106208DF80700F0208DF8080096F8E9
:103400001F1207E08000002081000020140100202E
:103410003EB600203E484A464346007800EB011085
:103420008DF809008DF80A9038688DF80B00010AB4
:103430008DF80C10010C8DF80D10000E8DF80E009B
:103440008DF806A033488DF805908DF8048080F83B
:10345000009051460DF1070002F0BEFC00E04582ED
:103460002D4F386802F032FD01284FF00000594618
:103470003ADB00BFC0EBC00202EB42020A44401C30
:10348000D27B16281444F5DB002C2BDD07208DF8A9
:103490000700F0208DF8080096F81F121C484A46D5
:1034A0004346007800EB01108DF809008DF80A9072
:1034B00038688DF80B00010A8DF80C10010C8DF89E
:1034C0000D10000E8DF80E008DF806A011488DF835
:1034D00005908DF8048080F8009051460DF10700AA
:1034E00002F07AFCBDE8FF9FC0EBC00202EB420293
:1034F0000A44401CD27B16281444F5DB0748002CF4
:1035000003DDC08A0128C1D0ECE7C582EAE70000EC
:1035100080000020810000202C0100203EB6002009
:1035200070B500200E4D0F4B0146024600EB8004A3
:1035300004EBC00403EB0414B4F870602EB12E5CED
:103540001EB9B4F97040491C2244401C1628EDDB1A
:10355000002904DDB2FBF1F00349A1F8FA0170BDC6
:1035600008AA0020648200206492002000B5FFF7C2
:10357000D7FF00F02DF85DF804EB00F001B8000073
:1035800070B5114B0020B3F87A2003F58051A1F8F3
:10359000FC210E4C00EB800202EBC00203EB021296
:1035A000B2F87A505DB1255C4DB9B2F87A50B1F8F5
:1035B000FC61B54203D9B2F87A20A1F8FC21401C85
:1035C0001628E7DB70BD00006482002008AA0020F6
:1035D000F0B52F480021A0F8F6112E4D2E4BA0F586
:1035E000805200BF01EB810404EBC10402EB041420
:1035F000B4F96C60AE420BD05E5C4EB9B4F96C604D
:10360000B0F9F671BE4203DDB4F86C40A0F8F641A3
:10361000491C1629E6DB40F6C414A0F8F841002145
:1036200001EB810606EBC10602EB0616B6F96E70D9
:10363000A7420BD05F5C4FB9B6F96E70B0F9F8C114
:10364000674503DAB6F86E60A0F8F861491C1629E0
:10365000E6DBB2F89C10A0F8FE11002101EB81041A
:1036600004EBC10402EB0414B4F99C60AE420BD02D
:103670005E5C4EB9B4F99C60B0F8FE71BE4203DDE9
:10368000B4F89C40A0F8FE41491C1629E6DBF0BDC9
:10369000649200203CF6FFFF08AA0020FEE700002D
:1036A0002DE9F041144C2068144D00F003002E1D4C
:1036B000371D07F1040814E0114807F06DFCA0B1B4
:1036C0002968C90801603168017139688160D8F8DA
:1036D0000010C160206840F020002060206800F0E9
:1036E00003000028E8D1BDE8F081206840F0200008
:1036F00020602068F7E700000C640040B0650040DF
:10370000344200202DE9F041144C2068144D00F0A3
:1037100003002E1D371D07F1040814E0114807F0BF
:103720003BFCA0B12968C9080160316801713968A2
:103730008160D8F80010C160206840F0200020604F
:10374000206800F003000028E8D1BDE8F08120687F
:1037500040F0200020602068F7E700000C6800407F
:10376000B06900404042002010B50D494FF400748C
:10377000224601F5804007F03BFC0A49224601F54C
:10378000804007F035FC0748224607490C3807F00F
:103790002FFC2246BDE810400449054807F028BC2C
:1037A000340200204C420020342200204C620020D1
:1037B00058820020094910B588424FF0010101D11B
:1037C0004C0601E04FF08064204604F063F9204687
:1037D000BDE81040002104F05DB900000064004025
:1037E0002DE9F0475F4D8AB000240646EC7107F0E2
:1037F0003BFC2872E87105A804F078F941F23C21FD
:103800005948FCF72CFD0121082004F04FF9012153
:10381000042004F04BF90121480604F02FF901219E
:10382000084604F043F90121880604F027F9012134
:10383000082004F03BF94FF40060ADF80C00DFF80D
:103840002CA148258DF80F5003A9504603F016FB14
:103850004FF48058ADF80C804FF018098DF80F9098
:1038600003278DF80E7003A9504603F007FBADF84F
:103870000C808DF80F503E4D03A9284603F0FEFA48
:103880006814ADF80C008DF80F908DF80E7003A938
:10389000284603F0F3FA780204F07CF802208DF851
:1038A000110001258DF812508DF8135014208DF859
:1038B000100004A804F03CF840208DF8100004A883
:1038C00004F036F8DFF8AC804046FFF773FFDFF80E
:1038D000A8904846FFF76EFF684602F02DF98DF874
:1038E00006408DF807508DF8084009208DF80950E2
:1038F0008DF804008DF80A508DF8024004208DF8F0
:103900000B508DF803708DF805001C49B068B0FBB2
:10391000F1F082B2ADF800201948B16807F05AF80A
:103920006946404600F098F86946484600F094F829
:103930000521002007F0A2FE02210E2007F09EFEC6
:1039400003210F2007F09AFE01220221404600F0D9
:103950007BF801220221484600F076F80AB0BDE863
:10396000F0870000780000206482002000080140F9
:10397000000C0140006400400068004080841E008C
:10398000E8C40108F0B5827A012191402D4A1368FC
:1039900043F0010313602B4B1C331C688C431C60E9
:1039A000284C284D077B0C3440352E1DA7B92768BD
:1039B0008F4327604788B0F806C047EA0C4790F865
:1039C0000AC045F83C700788B0F804C047EA0C47C5
:1039D00090F80AC046F83C70077B012F0ED127688B
:1039E0000F4327600468877A4FEA344445F837402C
:1039F0004468857A4FEA344446F83540114CC57A1C
:103A0000241D002D256806D00D4325600D4C058929
:103A1000143415B104E08D43F7E725688D43256024
:103A20000589012D02D125680D432560407B0128C1
:103A300002D1186808431860106820F00100106077
:103A4000F0BD000000660040002A426901D00A4330
:103A500000E08A434261704710B50368002223F0FA
:103A600002030360036843F0010303604FF6FF7332
:103A700000E0521C4468E40701D19A42F9D142683F
:103A8000D2073ED08A79012A02683CD022F0800217
:103A90000260CA79012A026838D022F0400202602E
:103AA0000A7A012A026834D022F0200202604A7A9F
:103AB000012A026830D022F0100202608A7A012ABC
:103AC00002682CD022F008020260CA7A012A026839
:103AD00028D022F0040202608A78CC78920742EA69
:103AE00004620C7942EA04424C79098842EA0452A1
:103AF000491E0A43C261016821F0010101600021F1
:103B000014E0002010BD42F08002C1E742F0400204
:103B1000C5E742F02002C9E742F01002CDE742F0CB
:103B20000802D1E742F00402D5E7491C4268D207F7
:103B300001D09942F9D14068C007E2D1012010BDFF
:103B400010B5FFF74DFEBDE81040FFF70DBE0000B9
:103B50002DE9F04F97B0FA480790FA480F90FA48CD
:103B60000D90FB4DF94805F5805BDFF8E883FA4CD2
:103B70000590FDE3002202214046FFF765FFF74E66
:103B80004FF0000AF448C6F814A007F01CFA0168C8
:103B9000074612A802F0E9FE38798DF84E003A790E
:103BA00007F108010DF148090DF14F00FCF73EFB4C
:103BB000396808A802F0D9FE9DF84B00052804D00A
:103BC000C1B2E7A006F006FF0AE09DF94C10481EBE
:103BD00016280DD39DF94C20491EE9A006F0FAFEE7
:103BE000012202214046FFF72FFF17B0BDE8F08FFA
:103BF0009DF84D204B2A7DD01CDC432A7BD010DC65
:103C0000202A79D006DC002A77D0012A76D0022A31
:103C100075D1FDE3222A73D0412A72D0422AF7D10E
:103C2000D3E0443A072A6AD2DFE802F0FEFDBE691B
:103C3000FCFBFA00C02A65D010DC4F2A7DD006DCE0
:103C40004C2A7BD04D2A7AD04E2AE1D1F4E1782A51
:103C500003D0792A11D0802ADAD18EE0C72A06D083
:103C600006DCC12A6CD0C22A01D0C62AD0D18FE08E
:103C7000DE2A66D0DF2ACBD19BE2B84B06215972EF
:103C800043B29DF84E1009F1070002F0A5F89DF827
:103C90005100C82859D3B14F1C37386802F016F9C3
:103CA000C449012681F829009DF84C103868491E46
:103CB00006FA01F10843C04938600E8202F006F9A5
:103CC000012852DC9DF94C00BC4900EB800001EB5F
:103CD0008000022100F8026CA0488DF805104172A6
:103CE0000D218DF80710F0218DF808109BF81F1298
:103CF000007A08E0F0E080E060E094E2FDE341E279
:103D00004DE040E2FAE300EB01108DF809008DF878
:103D10000AA038688DF80B00010A8DF80C10010C10
:103D2000000E8DF80D10B31E8DF80E0002228DF8D6
:103D3000043008210DF1070004E097E1E6E061E1BD
:103D400023E055E202F048F80FE0844E1C3630685C
:103D500002F0BCF8974981F829009DF84C20012019
:103D6000521E31689040814331609DF94C209DF88E
:103D7000491093A006F02EFE04E20621717243B2B0
:103D80009DF84E1009F10700D6E7F0700E2101E012
:103D9000F0700521717243B29DF84E10FAE3F07095
:103DA0009DF84C1022200DE0824A9DF84F00921C95
:103DB00000F802A0924A00F802A0DDE7F0709DF83A
:103DC0004C10202008F0D8F9D6E701EB8103BDF8AC
:103DD0004F2003EBC10105EB011152BA21F86E2D02
:103DE000BDF8512052BA4A80BDF8532052BA8A8099
:103DF000BDF8552052BACA801CE001EB8103BDF822
:103E00004F2003EBC10105EB011152BA21F8642DDB
:103E1000BDF8512052BA4A80BDF8532052BA04E08E
:103E200040E023E008E091E13AE18A80BDF85520C6
:103E300052BA0A86F0709FE701EB8103BDF84F206C
:103E400003EBC10105EB011152BA21F8D02DBDF8E9
:103E5000512052BACA80BDF8532052BA8A81BDF8A7
:103E6000552052BA4A82F0700C2018E001EB810311
:103E7000BDF84F2003EBC10105EB011152BA21F847
:103E8000B82DBDF8512052BACA80BDF8532052BA9D
:103E90008A81BDF8552052BA4A82F0700D2007F091
:103EA0004FFC69E701EB8103BDF84F2003EBC10133
:103EB00005EB011152BA21F8A02DBDF8512052BADC
:103EC000CA80BDF8532052BA8A81BDF8552052BA33
:103ED0004A82F0700E20E2E701EB8103BDF84F202B
:103EE00003EBC10105EB011152BA21F8882DBDF891
:103EF000512052BACA80BDF8532052BA8A81BDF807
:103F0000552052BA4A82F0702420C8E701EB8103A1
:103F1000BDF84F2003EBC10105EB011152BA21F8A6
:103F2000CE2DBDF8512052BACA80BDF8532052BAE6
:103F30008A81BDF8552052BA4A82F0700F20AEE750
:103F400055A900206BA9002081A9002097A9002075
:103F50006482002000640040344200207800002089
:103F600052583A2077726F6E672064657669636590
:103F700020747970652025642E2E2E2E0D0A0000E7
:103F800052583A2077726F6E672064657669636570
:103F90002069642C207361766520746F202564206D
:103FA0005B206765742069642025645D2E2E2E2EAB
:103FB0000D0A0000E8AE002058B60020EDB0002049
:103FC0004040402D307837382D40404020466972BF
:103FD0006D77617265204D657373616765202D2D66
:103FE00020537472696E672069643A2025642C201E
:103FF00042502069643A202564200D0A2000000008
:1040000007AA002001EB8103BDF84F2003EBC1019B
:1040100005EB011152BA21F8B62DBDF8512052BA64
:10402000CA80BDF8532052BA8A81BDF8552052BAD1
:104030004A82F070102032E701EB8103BDF84F2077
:1040400003EBC10105EB011152BA21F89E2DBDF819
:10405000512052BACA80BDF8532052BA8A81BDF8A5
:10406000552052BA4A82F070112018E701EB810303
:10407000BDF84F2003EBC10105EB011152BA21F845
:10408000862DBDF8512052BACA80BDF8532052BACD
:104090008A81BDF8552052BA4A82F0702520FEE68A
:1040A00001EB810707EBC1019DF8502005EB0111E1
:1040B000A83902F0010301F8243CC2F3400301F8DF
:1040C0001E3CC2F3800301F8183CC2F3C00301F8A0
:1040D000123CC2F3001301F80C3CC2F3401301F888
:1040E000063CC2F380130B70D2098A719DF84F20F1
:1040F00002F001030B73C2F340038B74C2F380031D
:104100000B76C2F3C0038B77C2F3001381F824301F
:10411000C2F3401381F82A30C2F3801381F83030A3
:10412000D20981F836209DF8512081F83820BDF859
:1041300052209DF8553052BA63F31F429DF8543017
:1041400042EA03628A67F0700B20A8E6BDF84F00D0
:104150009DF8522040BA62F31F409DF8512040EA7A
:10416000026201EB810000EBC10005EB0010663834
:10417000C0F83620BDF8531049BA0180BDF855107B
:1041800049BA018205E201EB810303EBC10105EBB2
:1041900001119DF84F2001F8082D9DF850204A701C
:1041A0009DF851208A709DF85220CA70F07020202E
:1041B00075E6DDF84F209DF8523012BA22F0FF026A
:1041C0001A4301EB810303EBC10105EB011141F837
:1041D0002C2D9DF853200A719DF854204A719DF8AA
:1041E00055208A719DF85620CA71F070122056E64B
:1041F00001EB8103BDF84F2003EBC10105EB011179
:1042000052BA21F8242DBDF8512052BA4A80DDF867
:1042100053209DF8563012BA22F0FF021A430A6268
:10422000F07013203BE69DF85070FF2F7ED186F88A
:1042300009A00F208DF850009DF84C309DF84E10CD
:1042400009F1070001F084FD9DF84F008DF85070D2
:1042500008286BD2DFE800F0042E73B26A6ADDFE34
:10426000FD499DF852200127521E086807FA02F204
:104270001043086001F02AFE012857DC9DF94C200C
:10428000C2EBC20000EB4001F448084400F8157C82
:104290009DF8521007980F54F0208DF850009BF8AD
:1042A0001F02317A01EB00108DF851008DF8527029
:1042B000E94828E0EA499DF852200127521E086883
:1042C00007FA02F21043086001F000FE0128D4DC76
:1042D0009DF94C20C2EBC20000EB4001DF480844CE
:1042E00000F8137C9DF852100F980F54F0208DF8B1
:1042F00050009BF81F02317A01EB00108DF851003D
:10430000D7488DF8527000688DF85300010A8DF877
:104310005410010C8DF85510000E08218DF8560030
:104320008DF84E1086F809A0521E00E093E053B2BB
:104330009DF84D2009F1070001F04EFDF2E0C9495A
:104340009DF852200127521E086807FA02F2104316
:10435000086001F0BBFD01287DDC9DF94C00C0EB3D
:10436000C00101EB4102BD49114401F8117C00E09C
:10437000FEE39DF852200D995754F0218DF850100E
:104380009BF81F12327A02EB01118DF85110B549DA
:104390008DF8527009688DF853100A0A8DF8542070
:1043A0000A0C8DF85520090E8DF8561008218DF84D
:1043B0004E10401E86F809A043B2B9E7AA499DF8FD
:1043C00052200127521E086807FA02F210430860C3
:1043D00001F07CFD01283EDC9DF94C20C2EBC200BF
:1043E00000EB40019D48084400F80F7C9DF85210F6
:1043F00005980F54F0208DF850009BF81F02317A79
:1044000001EB00108DF851008DF8527096487AE754
:1044100053E396499DF852200127521E086807FA77
:1044200002F21043086001F051FD012834DC90488D
:1044300007739DF94C20C2EBC20000EB4001874896
:10444000084400F8097CF0208DF850009BF81F020A
:10445000317A01E022E065E001EB00108DF85100B7
:1044600082488DF85270521E00688DF85300010A80
:104470008DF85410010C8DF85510000E8DF8560073
:1044800008218DF84E1086F809A053B29DF84D20F2
:1044900009F1070001F0A0FC377043E075499DF871
:1044A00052200127521E086807FA02F210430860E2
:1044B00001F00CFD012834DC6D4887739DF94C2018
:1044C000C2EBC20000EB40016448084400F8077CDE
:1044D000F0208DF850009BF81F02317A01EB00109C
:1044E0008DF8510063488DF8527000688DF85300C4
:1044F000010A8DF85410010C01E0D8E0C9E38DF8F1
:104500005510000E8DF8560008218DF84E10521EE1
:1045100086F809A053B29DF84D2009F1070001F07B
:104520005BFC77709DF85000002832D186F809A016
:104530000E208DF8500057469DF84C309DF84D20C8
:104540009DF84E1009F1070001F002FC9DF84F00A4
:104550008DF8507008281CD2DFE800F0041D344CA0
:104560001B1B6490444901203B4A48819DF852102E
:1045700013684E1EB040834313609DF94C00C0EB9E
:10458000C00000EB40023548104400F8157C079845
:104590000F5472E359E338490120C88130499DF82E
:1045A0005220561E0B68B04083430B609DF94C00AF
:1045B000C0EBC00000EB40012848084400F8137C21
:1045C0000F9815E02C490120488026499DF852207B
:1045D000561E0B68B04083430B609DF94C00C0EB46
:1045E000C00000EB40011D48084400F8117C0D9804
:1045F000175442E3204801211B4AC1809DF8520014
:104600001368461EB1408B4313609DF94C10C1EBFB
:10461000C10101EB41021149114401F80F7C0599D8
:1046200047542AE314490120088210499DF852306A
:104630005B1E0A68984082430D480A603770077312
:104640009DF94C00C0EBC00000EB4001034808445A
:1046500000F8097C11E3000000010020A5B2002051
:104660001001002008010020180100202001002076
:1046700093B60020280100203EB60020FE4901200C
:104680008882FE499DF852305B1E0A68984082433A
:10469000FB480A60777087739DF94C00C0EBC0003F
:1046A00000EB4001F748084400F8077CE5E29DF87C
:1046B0005070FF2F7DD1012070720F208DF85000B7
:1046C0009DF84C309DF84E1009F1070001F040FBB9
:1046D0009DF84F008DF8507008286AD2DFE800F08E
:1046E000043077A36969CFFBE3480127E64A0781D5
:1046F0009DF8523010685B1E07FA03F10843106002
:1047000001F0E4FB012854DC9DF94C20C2EBC2000F
:1047100000EB4001DB48084400F8147C9DF852107F
:10472000DA480F54F0208DF850009BF81F02317AC0
:1047300001EB00108DF851008DF85270D2482AE03C
:10474000CD480127D24A87819DF8523010685B1E00
:1047500007FA03F10843106001F0B8FB012828DCD8
:104760009DF94C20C2EBC20000EB4001C548084453
:1047700000F8127C9DF85210C6480F54F0208DF8B6
:1047800050009BF81F02317A01EB00108DF85100A8
:10479000BF488DF8527000688DF85300010A8DF8FB
:1047A0005410010C8DF85510000E8DF8560008219C
:1047B00000E08FE08DF84E10521E77724FFA82F3B0
:1047C0009DF84D2009F1070001F006FBBFE0AA4863
:1047D0000127B14987809DF8523008685B1E07FAAF
:1047E00003F21043086001F071FB012872DC9DF9AF
:1047F0004C20C2EBC20000EB4001A248084400F884
:10480000107C9DF85210A5480F54F0208DF85000F0
:104810009BF81F02317A01EB00108DF851008DF8E2
:1048200052709D48B7E7944801279D4A87809DF8BC
:10483000523010685B1E07FA03F10843106001F064
:1048400045FB012846DC9DF94C20C2EBC20000EB81
:1048500040018C48084400F80E7C9DF852109148A5
:104860000F54F0208DF850009BF81F02317A01EBB5
:1048700000108DF851008DF8527089488BE77E4802
:104880000127894947829DF8523008685B1E07FA64
:1048900003F21043086001F019FB012857DC784847
:1048A00047739DF94C20C2EBC20000EB40017548F4
:1048B000084400F8087CF0208DF850009BF81F0297
:1048C000317A01EB00108DF851008DF85270764866
:1048D00061E700E03BE068480127744AC7829DF821
:1048E000523010685B1E07FA03F10843106001F0B4
:1048F000EDFA01282BDC6248C7739DF94C00C0EB30
:10490000C00101EB41025F49114401F8067CF0212E
:104910008DF850109BF81F12327A02EB01118DF8BE
:10492000511062498DF8527009688DF853100A0AC7
:104930008DF854200A0C8DF85520090E8DF856106C
:1049400008218DF84E10401E777243B238E79DF86B
:10495000500000282ED10390012777720E208DF889
:1049600050009DF84C309DF84D209DF84E1009F1F7
:10497000070001F0EDF903988DF850009DF84F0005
:10498000082817D2DFE800F004172A3D16165066F3
:104990003D489DF85220521E01689740B94301607E
:1049A0009DF94C10C1EBC10101EB410235491144A5
:1049B00001F814AC61E136489DF85220521E01689E
:1049C0009740B94301609DF94C10C1EBC10101EB67
:1049D00041022C49114401F812AC4EE12E489DF8D9
:1049E0005220521E01689740B94301609DF94C1056
:1049F000C1EBC10101EB41022249114401F810ACA5
:104A00003BE127489DF85220521E01689740B94368
:104A100001609DF94C10C1EBC10101EB4102194944
:104A2000114401F80EAC28E11F489DF85220521E97
:104A300001689740B9430160114981F80DA09DF9C3
:104A40004C10C1EBC10101EB41020E49114401F8C8
:104A500008AC12E115489DF85220521E016897409B
:104A6000B9430160064981F80FA09DF94C10C1EBD4
:104A7000C10101EB41021BE03EB6002028010020ED
:104A800093B60020A5B2002004010020ADA90020AB
:104A900014010020C3A900200C010020D9A9002086
:104AA0001C010020EFA90020240100202C0100207F
:104AB0008549114401F806ACDFE09DF85070FF2FE6
:104AC00001D0B7B3D9E04FF0020A86F809A00F2051
:104AD0008DF850009DF84C309DF84E1009F10700FC
:104AE00001F036F99DF84F008DF85070052802D07E
:104AF0000C2870D11EE0754A9DF8523001215B1ED2
:104B0000106801FA03F3184310609DF94C20C2EBC2
:104B1000C20303EB43076C4B3B4403F8031C9BF8B5
:104B20001F32377A07EB03138DF851308DF852108E
:104B30002AE03AE066480127664907839DF852302B
:104B400008685B1E07FA03F21043086001F0BEF923
:104B5000012840DC9DF94C20C2EBC20000EB400173
:104B60005948084400F8027CF0208DF8500000E01D
:104B700088E09BF81F02317A01EB00108DF851009C
:104B800054488DF8527000688DF85300010A8DF872
:104B90005410010C8DF85510000E08218DF85600A8
:104BA0008DF84E1086F809A04BE0022070720E209E
:104BB0008DF850009DF84C309DF84E1009F107001B
:104BC00001F0C6F89DF84F008DF85070052803D00D
:104BD0000C2852D13EE050E03C4A9DF85230012072
:104BE0005B1E116800FA03F3994311609DF94C2094
:104BF0000223C2EBC20707EB470C334F674407F8A9
:104C000003AC73729BF81F32367A06EB03138DF8F0
:104C100051300B0A8DF854300B0C8DF855308DF84F
:104C200052008DF85310090E02EB42032A4E8DF804
:104C3000561003EB0213082133448DF84E1003F88D
:104C4000030C521E53B29DF84D2009F1070001F0EC
:104C5000C3F812E01F499DF8523001205B1E0A681C
:104C6000984082430A609DF94C10C1EBC10101EBF1
:104C700041021549114401F802AC012202214046CB
:104C8000FEF7E2FEA08800287EF474AF17B0BDE8FE
:104C9000F08F01EB8103BDF84F2003EBC10105EB61
:104CA000011152BA21F85E2DBDF8512052BA8A8006
:104CB000BDF8532052BA4A80BDF8552052BACA8076
:104CC000F0701420FFF7EBB8A5B2002030010020EF
:104CD0003EB60020340100209CB400202DE9F04FA6
:104CE00089B04FF0050B4FF00009FE4DDFF8F8A337
:104CF000FE4CEAE3FD4806F066F90168064601A8A5
:104D000001F033FE30798DF80A00327906F108019E
:104D100001AF8846F81DFBF789FA316805A801F054
:104D200024FE30798DF81A00327941460DF11B00CE
:104D3000FBF77CFA9DF80510287A814205D021B155
:104D40009DF80A000028D4D1FDE342F6F82148433B
:104D500001F0C5F89DF80910A12974D040DC432961
:104D600072D01ADC102970D008DC0A296ED2DFE874
:104D700001F0E9E8E7E6808080E5E4E3222970D0ED
:104D800006DC11296ED020296DD0212971D1EDE3E7
:104D9000402969D042296CD1E9E356296AD010DC58
:104DA000522968D006DC462966D050297ED0512988
:104DB0005FD1F7E353297AD0542979D0552958D1B6
:104DC000F1E3802975D006DC572973D0782972D099
:104DD00079294ED1B8E081298BD0A02949D1F3E3BC
:104DE000C22969D01BDCA92967D009DCA1F1A20086
:104DF00007283ED2DFE800F0F0EFEEEDECEBEA0042
:104E0000AD2975D006DCAA2973D0AB2972D0AC29A4
:104E10002FD1F8E3BB296ED0C1292AD1E4E0E329E0
:104E20006AD014DCD92968D006DCC6297DD0C72910
:104E30007BD0D8291DD106E1E02977D0E12976D0B1
:104E4000E22916D1FDE3FDE3FDE31AE011E0E729D5
:104E50006ED00ADCE4296CD0E5296BD0E62908D1B4
:104E6000F2E3F6E09CE0F0E3F0E3F72963D0F82901
:104E700069D002E0EBE3EBE3EBE39DA005F0AAFDD4
:104E800023E303206872BAF8F601000A8DF81B00CC
:104E9000BAF8F6018DF81C00BAF8F801000A8DF88E
:104EA0001D00BAF8F8018DF81E0007E0FDE3FDE3F0
:104EB000FDE323E091E058E0A1E0F9E3BAF8FA015C
:104EC000000A8DF81F00BAF8FA018DF820009AF850
:104ED00039028DF82100287A42F6F821484300F083
:104EE000FEFF102207210DF11B0000F08DFEECE209
:104EF000F0E3F0E3F0E3F0E3F0E3A7E0287A42F236
:104F00001071484300F0EBFF062068729DF80B001B
:104F1000022804D0032802D001F0A2F880BB9DF83B
:104F20000A10F81D00F0E0FFCFE272E0EFE3EFE3DC
:104F3000EFE3EFE3EFE3EFE39FE095E073E0C3E33C
:104F4000DDE2ACE19BE0E8E3287A42F210714843ED
:104F500000F0C5FF0620687201F082F880B99DF864
:104F60000A10F81D01F022F8AFE2287A42F210711F
:104F7000484300F0B4FF0620687201F071F848B1B0
:104F80009DF808309DF809209DF80A10F81D00F0E2
:104F9000DFFE9AE29DF80A10F81D01F067F894E22E
:104FA0000320687206228DF8192049468DF8189062
:104FB0008DF81A900B460DF11B0000F0C9FE02F0AF
:104FC000A1FE02F007FE02F06BFE7EE2F1E3F1E3E8
:104FD000F1E3F1E3F1E3F1E3F1E3042068729DF81A
:104FE00008309DF80A001BE00E2068728DF80A90C8
:104FF0000A469DF808304946F81D00F0A9FE85F8DC
:1050000009B08DF80A9049469DF808309DF80920AE
:10501000BCE785F809B08DF80A909DF8083048463D
:105020000A460146B2E79DF80B0020B10F2803D0D5
:10503000F02899D103E048468AF8390245E2F02188
:105040008AF8391241E201F077F93EE201F07BF98A
:105050003BE2012068719DF80B10012902D085F810
:10506000049032E22871EEE79DF80B00297A88421D
:105070008FD12E499DF80C000880232023E39DF852
:105080000B005FEA000E1BD19DF80C00F02886D1C2
:10509000274E0123274A3370494682F80090337522
:1050A00082F815905FF0020000EB800706F82730C9
:1050B000C0EBC00707EB4707401CD1551628F3DBB0
:1050C000BEF1010F4CD19DF80C00F028B6D1DFF8ED
:1050D00060C0184F01218CF802104B4687F80290EF
:1050E000624629E0780000206492002040420020BF
:1050F0003D206E6F7420696D706C656D656E7420F7
:1051000043414E5F52585F50726F63657373322034
:105110007965742C206D65737361676520696420FF
:105120003D203078253032780D0A0000D400002070
:10513000EDB00020A5B200203E46917586F817908C
:105140005FF0020000EB80060CEB86029170C0EB72
:10515000C00202EB4202D619401CB3701628F1DBE4
:10516000BEF1020F20D19DF80C00F0288FD1DFF89E
:1051700000C40121FF4F8CF80410624687F80490A8
:105180003E4611764B4686F81990022000EB8006C9
:105190000CEB86021171C0EBC00202EB4202D61981
:1051A000401C33711628F1DBBEF1030F20D19DF8AE
:1051B0000C00F0288AD1DFF8B8C30121ED4F8CF83C
:1051C0000610624687F806903E4691764B4686F872
:1051D0001B90022000EB80060CEB86029171C0EB65
:1051E000C00202EB4202D619401CB3711628F1DB53
:1051F000BEF1060F21D19DF80C000F28B6D1DE4E6E
:10520000DE4F4FF00108DFF86CC386F80C8087F89A
:105210000C9062468CF80C90484682F8219002214E
:10522000C1EBC10202EB420386F80C8003EB0C02D7
:105230003873491C10731629F2DBBEF1070F22D117
:105240009DF80C000F2891D1CB4ECC4F4FF00108A8
:10525000DFF820C386F80E8087F80E9062468CF83F
:105260000E90484682F823905FF00201C1EBC10224
:1052700002EB420386F80E8003EB0C02B873491C64
:1052800090731629F2DBBEF10D0F93D19DF80C003F
:105290000F288FD101209DF80F10B94A26E19DF803
:1052A0000C005FEA000E02D1B64981F801909DF82A
:1052B0000B00009000BBBEF1F00F9FD1DFF8B0C231
:1052C0000121AC4F8CF80110624687F801903E46F0
:1052D00051754B4686F816905FF0020000EB800691
:1052E0000CEB86025170C0EBC00202EB4202D619F1
:1052F000401C73701628F1DB0098012820D1BEF104
:10530000F00FA0D1DFF868C201219A4F8CF803108A
:10531000624687F803903E46D1754B4686F8189052
:105320005FF0020000EB80060CEB8602D170C0EB50
:10533000C00202EB4202D619401CF3701628F1DBC2
:10534000009802281ED1BEF1F00F9ED1DFF820C2D6
:10535000884F01218CF80510624687F805903E467B
:1053600051764B4686F81A9000EB80060CEB8602CD
:105370005171C0EBC00202EB4202D619401C73719E
:105380001628F1DB0098032820D1BEF1F00F94D14C
:10539000DFF8DCC10121774F8CF80710624687F8EF
:1053A00007903E46D1764B4686F81C905FF002008F
:1053B00000EB80060CEB8602D171C0EBC00202EB61
:1053C0004202D619401CF3711628F1DB009804281C
:1053D00020D1BEF1F00F94D1DFF894C10121654FC7
:1053E0008CF80910624687F809903E4651774B4683
:1053F00086F81E905FF0020000EB80060CEB860240
:105400005172C0EBC00202EB4202D619401C73720B
:105410001628F1DB0098062821D1BEF10F0F94D198
:10542000554EDFF850C14FF00108544F86F80D80FB
:105430008CF80D90624687F80D90484682F82290CD
:105440005FF00201C1EBC10202EB420303EB0C026D
:1054500086F80D805073491C78731629F2DB00988A
:1054600007281FD1BEF10F0F91D1434F0120DFF864
:1054700004C1DFF80881F8738CF80F90634688F850
:105480000F004A4683F824900221C1EBC10303EBCD
:10549000430606EB0C03F873DA73491C88F80F0017
:1054A0001629F2DB00980C2802D00D2893D10DE0CC
:1054B000BEF10F0F03D0BEF10E0F8CD102E0012020
:1054C00031492BE0314981F80090F7E2BEF10F0F2E
:1054D00003D0BEF10E0FF8D104E001209DF80F10AB
:1054E0002B4A03E09DF80F102A4A01200A449DF838
:1054F0000E306FF0100101EB03115054DEE29DF805
:105500000BC0BCF1030F03D0BCF1000F08D04DE07D
:105510009DF80C000F28D8D11F4901200870CDE25A
:105520009DF80C80B8F1F00F14D11C4E0120104FE3
:1055300030703A467874707082F82500022101EBD1
:105540008103705400E09DE207EB8302491C507414
:105550001629F4DBB8F10E0F28D19DF9081001EBE4
:10556000410202EB01120E4911441DE0AAE0CAE01B
:10557000EDB00020A5B2002088B4002093B6002032
:10558000A094002098000020C5000020C700002043
:105590000096002060970020C400002040A9002051
:1055A0009CB40020D7E0DEE001F8019CBCF1050FBF
:1055B00003D0BCF10C0F27D03FE09DF80C000F2862
:1055C00003D00E289AD113E0D1E09DF90800012103
:1055D00000EB8003FE4AC0EBC00002EB830202F83E
:1055E000041C00EB4002FB48104400F8039C65E2F9
:1055F0009DF9081001EB410202EB0112F64911443A
:1056000001F8039C5AE207E19DF80C00F02886D1CE
:10561000F04B49461A4683F8139082F8289082F896
:105620003D9082F852900420C0EBC00202EB42068B
:10563000F218401CD1741628F6DBBCF10D0F21D1F5
:1056400008E044E1BCE069E0DAE1EFE047E08CE04B
:1056500083E067E09DF80C00F028C8D1DC4B012105
:105660001A46997482F8261082F83A1082F84E1081
:105670005FF0040000EB800603EB8602401C91748F
:105680001628F7DBBCF10E0FB1D19DF80C00F02805
:10569000ADD1CF4B01211A46D97482F8271082F878
:1056A0003B1082F84F10042003E03DE057E058E043
:1056B000A6E000EB800603EB8602401CD17416289E
:1056C000F2DBFBE11520F7E100F07AFE132003F096
:1056D0006BFEF3E169E097E09AE0A1E019E105F0E3
:1056E000C3FC9DF80C10884207D19DF80B108AF876
:1056F0001F129DF80D108AF81E129AF81E124020F3
:1057000006F03AFDDAE19DF808104220F8E79BE048
:10571000BAE095E11FE140E184E085E09DF80810E2
:105720004320EDE71620C7E19DF80B108AF81F1201
:10573000042006F005F8022006F002F8032005F028
:10574000FFFF052005F0FCFF062005F0F9FF07200C
:1057500005F0F6FF91E40420AEE10220ACE1032065
:10576000AAE10520A8E10620A6E10720A4E19DF812
:105770000810412006F000FD9DF80810482006F0B2
:10578000FBFC9DF808104C2006F0F6FC9DF8081074
:10579000442006F0F1FC9DF80810DF2006F0ECFC38
:1057A0009DF80810C02006F0E7FC9DF80810DE20E8
:1057B000A6E721E01CE017E012E00DE008E003E0BE
:1057C0009DF8081041209BE79DF80810482097E7B6
:1057D0009DF80810492093E79DF808104A208FE7AC
:1057E0009DF808104B208BE79DF808104C2087E7A8
:1057F0009DF808104D2083E79DF808104E207FE7A4
:105800009DF808104F207BE79DF80810442077E7AB
:105810009DF80810DF2073E79DF80810C0206FE79F
:105820001F2049E1212047E1222045E16B4AF81D74
:10583000911E01F033F8BAF82C0269490880C5F8C6
:10584000109085F8069039E166480090A0F120029A
:10585000831E911EF81D01F011F863483060304638
:1058600000F00EFA00F06AFE022003F09DFD5F4892
:10587000018841F00101018000F0F8FD0A2003F0E9
:1058800093FD01F0B3FF08E15648001DA0F1260189
:10589000831E8A1D0090091DF81D00F0EFFF52487D
:1058A000401C3060304600F0EBF900F077FE03203A
:1058B00003F07AFD4D48018841F00201018000F0BB
:1058C000D5FD0A2003F070FD01F090FFE7E04548A8
:1058D0000830A0F12002831E0090911EF81D00F0F8
:1058E000CDFF4148801C3060304600F0C9F900F01F
:1058F0000DFE042003F058FD3C48018841F00401EE
:10590000018000F0B3FD0A2003F04EFD01F06EFFB0
:10591000C7E034480C30A0F12002831E0090911E95
:10592000F81D00F0ABFF3048C01C3060304600F07E
:10593000A7F900F01BFE052003F036FD2B48018877
:1059400041F00801018000F091FD0A2003F02CFDD8
:1059500001F04CFFA7E023481030A0F12002831E85
:105960000090911EF81D00F089FF1F48001D306057
:10597000304600F085F900F099FD062003F014FD93
:105980001A48018841F01001018000F06FFD0A20E3
:1059900003F00AFD01F02AFF87E012481430A0F15D
:1059A0002002831E0090911EF81D00F067FF0E4834
:1059B000401D3060304600F063F900F08FFD072095
:1059C00003F0F2FC0948018841F0200101800FE05A
:1059D000EDB00020A5B200209CB4002092940020DD
:1059E000D2000020BAAC0020E04050013C01002071
:1059F00000F03CFD0A2003F0D7FC01F0F7FE56E072
:105A000032480090A0F12002831E911EF81D00F084
:105A100035FF2F483060304600F032F900F0F6FCD8
:105A2000082003F0C1FC2B48018841F040010180AF
:105A300000F01CFD0A2003F0B7FC01F0D7FE38E0AF
:105A40002248001DA0F12002831E0090911EF81D27
:105A500000F014FF1E48401C3060304600F010F982
:105A600000F0ECFC092003F09FFC1A48018841F08B
:105A70008001018000F0FAFC0A2003F095FC01F09F
:105A8000B5FE18E09DF80900E038082816D2DFE8D6
:105A900000F00406080A0C0E101217200CE0182063
:105AA0000AE0192008E01A2006E01B2004E01C2070
:105AB00002E01D2000E01E2005F042FEA088002824
:105AC0007FF418A909B0BDE8F08F0000D2AC002027
:105AD000E64050013C0100200A4A02EB0111026835
