:020000040800F2
:10000000E8B50020090200080D9A00081D940008B8
:10001000099A0008794300080BB8000800000000A6
:1000200000000000000000000000000065A90008BA
:10003000298A000800000000C19A0008DDB200080B
:1000400023020008230200082302000823020008FC
:1000500023020008230200082302000823020008EC
:10006000230200082302000823020008BD860008BE
:1000700023020008230200082302000823020008CC
:1000800023020008230200082302000823020008BC
:100090007D43000823020008230200082302000811
:1000A000230200082302000823020008230200089C
:1000B000230200082302000823020008230200088C
:1000C000230200082302000823020008230200087C
:1000D000230200082302000823020008230200086C
:1000E0002302000823020008230200080000000089
:1000F0000000000000000000000000000000000000
:100100000000000000000000230200082302000895
:100110002302000861B60008230200082302000839
:10012000230200082302000823020008230200081B
:10013000230200082302000823020008230200080B
:10014000F1430008230200082302000823020008EC
:10015000DFF80CD000F050FB00480047CDC9000884
:10016000E8B50020204B19680868B0E8F00F80F36C
:100170000988BFF36F8F4FF0000080F311884EF0B5
:100180000D0E70470000000006480068006880F30C
:10019000088862B661B6BFF34F8FBFF36F8F00DF81
:1001A00000BF00BF08ED00E0EFF30980BFF36F8FE1
:1001B0000D4B1A6820E9F00F106008B54FF0BF0032
:1001C00080F311880DF07EFF4FF0000080F311885E
:1001D000BDE8084019680868B0E8F00F80F30988A6
:1001E000BFF36F8F704700BFA0000020EFF31180B6
:1001F0004FF0BF0181F31188704780F31188704779
:10020000EFF3058070470000064880470648004726
:10021000FEE7FEE7FEE7FEE7FEE7FEE7FEE7FEE7B6
:10022000FEE7FEE7F5B500085101000840EA0103CA
:100230009B0703D009E008C9121F08C0042AFAD29C
:1002400003E011F8013B00F8013B521EF9D2704760
:10025000D2B201E000F8012B491EFBD27047002208
:10026000F6E710B513460A4604461946FFF7F0FFB5
:10027000204610BDF0B480EA0102D40F4200B2EB78
:10028000410F02D20246084611464A0042D0C30D31
:10029000DDB2C1F3C752AD1A202D35DAC1F3160114
:1002A00041F4000204B15242C5F1200602FA06F1FF
:1002B0002A411044B3EBD05F23D0C4B1012DA0EB91
:1002C000C35009DCF0BC4FF0004202EAC35200F513
:1002D0000000DBB200F004BA400000F1807000EBD7
:1002E000C350A0F1807040EAD170490009E049088C
:1002F00041EAC071A0EBC35000F50000400800EBDC
:10030000C350F0BC00F0E3B96142012202EB4101AD
:10031000001BF6E7F0BC704781F00041AAE780F0CF
:100320000040A7E780EA010210B502F00043400058
:1003300026D04A0023D04FEA106101EB1261C0F3CE
:100340005600C2F3560240F4000042F40002A0FB43
:100350000220A1F17F014FEA0040140401D000F116
:10036000010050EA124001D44000491EC2B20C06FE
:1003700004EBD010401C4008802A02D003E000208B
:1003800010BD20F00100002900DA0020184310BD44
:100390002DE9FE4F81EA030404F0004421F00041FE
:1003A00000944FF0000B23F0004350EA010402D008
:1003B00052EA030404D10020014603B0BDE8F08FE7
:1003C000C3F30A54C1F30A552C44A4F2F334019444
:1003D000A0FB0254C1F3130141F48011C3F31303D2
:1003E00043F4801301FB024400FB034E840A970A86
:1003F00044EA815447EA8357A4FB076802958D0AB3
:1004000005FB07854FEA932C04FB0C542705029D3E
:100410004FEA065847EA1637B5EB08056EEB070CAE
:10042000870E920E47EA811742EA8312A7FB020168
:10043000B6EB0B0164EB00042B0D43EA0C335E18A2
:1004400044EB1C50DA465146E7FB0201C5F31304A6
:100450004FEA0B3343EA14534FEA0432019C43EA58
:100460000603A4F10C040294009CCDE900B400F052
:1004700071F9A2E72DE9F04D81EA030404F0004B85
:1004800021F0004514464FF0000A23F0004150EAE5
:10049000050220D054EA01021DD0C5F30A570246D6
:1004A000C5F31303C1F31300C1F30A5640F48015DA
:1004B00043F48013A7EB0608101BD64608F2FD385C
:1004C00073EB050002D308F1010801E092185B41CB
:1004D000B8F1000F03DA00200146BDE8F08D0020DE
:1004E0004FF48011064684460EE0171B73EB050798
:1004F00005D3121B63EB050306434CEA010C4908C4
:100500004FEA300092185B4150EA0107EDD152EA00
:10051000030012D082EA040083EA0501084303D1F4
:1005200000224FF0004308E0101BAB4102D2012231
:10053000002302E06FF0010253101AEB06004CEBAF
:10054000085110EB0A0041EB0B01BDE8F04D00F043
:10055000F4B896230022114600F0C2B80EB5C10FC0
:1005600080EAE0700844CA07002140F233438DE876
:100570000E000A460B4600F0EDF803B000BD0EB5C4
:1005800040F2334102910021CDE900110A460B46A9
:1005900000F0E0F803B000BD00F0004220F00040A1
:1005A000C10DC0F3160040F400007F2901DA0020DD
:1005B0007047962903DCC1F19601C84001E09639E5
:1005C0008840002AF4D040427047C1F30A5210B567
:1005D000C1F3130140F2FF3341F480119A4201DA72
:1005E000002010BD40F233439A42A2F2334203DCB2
:1005F000524200F05CF810BD904010BD30B50029AB
:1006000004DB4FF00044404264EB0101002B04DBAB
:100610004FF00044524264EB03038B4208BF824216
:1006200030BD000030B5002904DB4FF000444042EB
:1006300064EB0101002B04DB4FF00044524264EBF9
:100640000303994208BF904230BD00002DE9F05FDE
:100650000546002092469B46884606468146402431
:100660001BE0284641464746224600F020F8534604
:100670005A46C01A914110D311461846224600F03E
:10068000CDF82D1A67EB01084F46224601200021C4
:1006900000F0C4F817EB00094E41201EA4F101043C
:1006A000DFDC484631462A464346BDE8F09F202A13
:1006B00004DB203A21FA02F00021704721FA02F30C
:1006C000D040C2F1200291400843194670470029EA
:1006D000A8BF7047401C490008BF20F001007047C8
:1006E00010B4B0FA80FC00FA0CF050EA010404BF28
:1006F00010BC704749B1CCF1200421FA04F411FA7E
:100700000CF118BF012121430843A3EB0C01CB1DC1
:100710000106000A002BBEBF002010BC704700EB92
:10072000C35010440029A4BF10BC7047401C4900AE
:1007300008BF20F0010010BC704710B5002B08DA8C
:10074000401C41F1000192185B411A4301D120F095
:10075000010010BD2DE9F04D92469B4611B1B1FA52
:1007600081F202E0B0FA80F22032904600F056F8B2
:1007700004460F4640EA0A0041EA0B0153465A4636
:10078000084303D120463946BDE8F08D114653EAAF
:10079000010015D0C8F140025046FFF788FF05461A
:1007A0000E4650465946424600F038F8084301D0FC
:1007B000012000E00020054346EAE0762C43374361
:1007C0000A984FEA4453A0EB08004FEAD4240A30B9
:1007D0004FF0000244EA47544FEAD72502D50020E3
:1007E0000146D1E7010510196941DDE90845001905
:1007F0006941BDE8F04DA0E7064C074D06E0E06812
:1008000040F0010394E8070098471034AC42F6D357
:10081000FFF7A2FC80E50008A0E50008202A04DB21
:10082000203A00FA02F1002070479140C2F1200303
:1008300020FA03F319439040704770B501EB0204AE
:1008400010F8015B15F0070301D110F8013B2A11E4
:1008500006D110F8012B03E010F8016B01F8016BD1
:100860005B1EF9D12B0705D40023521E0FD401F8CB
:10087000013BFAE710F8013B02F10202A1EB03038E
:1008800003E013F8015B01F8015B521EF9D5A142A8
:10089000D6D3002070BD000000B587B00121042030
:1008A00009F08EF90121102009F08AF9012148028E
:1008B00009F086F90C20ADF8040000208DF807003F
:1008C00001A92F4808F07FFB0720ADF804000020A5
:1008D0008DF8070001A92B4808F075FB0220ADF840
:1008E000040000208DF8070001A9254808F06BFBE3
:1008F0000220ADF8040000208DF8070001A920486F
:1009000008F061FB00F076F81F4800F0D3F80020F3
:1009100002908DF80C0001208DF80D004FF460203E
:1009200004900020059001208DF8180002A91648B7
:1009300000F002F94FF4404009F006F907230122C4
:100940000C21114800F020F901210F4800F0A7F810
:1009500001210D4800F098F80B4800F071F900BF34
:10096000094800F0DFF80028FAD1074800F06DF9D7
:1009700000BF054800F0CCF80028FAD107B000BD50
:1009800000100140000801400024014005480068B3
:1009900020F00200034908600846006820F4A00027
:1009A00008607047082401400548006840F00200D4
:1009B000034908600846006840F4A00008607047DA
:1009C000082401400348806820F001000149886044
:1009D0007047000000000240044800680448806836
:1009E00040F0010002498860704700004C2401403B
:1009F0000000024000B58DB00121084609F0B0F8B2
:100A00001B4807F02DFF1B4802901B480390002055
:100A1000049014200590002006908020079040004C
:100A200008908000099000200A904FF400500B902D
:100A300000200C9002A90E4807F0D7FF0B208DF87C
:100A4000040006208DF8050000208DF80600012026
:100A50008DF8070001A808F0DBFF012202210448FD
:100A600007F0BAFF0121024807F0EEFE0DB000BD0D
:100A7000080002404C240140B6AA0020014A5061FF
:100A8000D16070470000024021B1826842F001024B
:100A9000826003E0826822F001028260704721B127
:100AA000826842F48072826003E0826822F480727D
:100AB0008260704710B504461248844208D1012173
:100AC000401509F08DF80021601509F089F817E04C
:100AD0000D48844208D10121001509F081F8002158
:100AE000201509F07DF80BE00848844208D1012167
:100AF000C80309F075F800214FF4004009F070F8C0
:100B000010BD00000024014000280140003C0140CD
:100B1000014600208A6812F0040F01D0012000E095
:100B200000207047014600208A6812F0080F01D0AB
:100B3000012000E00020704730B50246002000236D
:100B400050680F4C20400D790C6844EA052420437E
:100B5000506090680B4C2040D1E902542C434D79F1
:100B600044EA450420439060D06A20F470000C7C75
:100B7000641EE4B2234340EA0350D06230BD00005B
:100B8000FFFEF0FFFDF7F1FFF0B504460D46002033
:100B90000021092D11DDE068A5F10A0606EB4607E4
:100BA000072606FA07F18843A5F10A0606EB460672
:100BB00003FA06F10843E0600CE0206905EB450705
:100BC000072606FA07F1884305EB450603FA06F106
:100BD00008432061072A0FDA606B561E06EB860772
:100BE0001F2606FA07F18843561E06EB860605FA0D
:100BF00006F10843606322E00D2A0FDA206BD61F4E
:100C000006EB86071F2606FA07F18843D61F06EB78
:100C1000860605FA06F10843206310E0E06AA2F1B7
:100C20000D0606EB86071F2606FA07F18843A2F198
:100C30000D0606EB860605FA06F10843E062F0BDF4
:100C4000816841F0080181607047816841F00401CA
:100C50008160704710B588B000200790FE4890F87A
:100C600015090F2805D1FC48B0F8C808FB490880D1
:100C700009E0F94890F81509F02804D1F648B0F8D1
:100C8000C808F6490880F448B0F8C40840F6426144
:100C9000884205DB09F0DEFD0120F14908700FE014
:100CA000EF48007801280BD1EB48B0F8C40840F6B3
:100CB0002E61884204DC0020E949087009F0D4FD67
:100CC000E8480078002803DCE648007C002829DD9D
:100CD000FF21E14880F814190BF09EF90BF0ACF9F4
:100CE0000020059006900C208DF81400FF208DF850
:100CF0001500D94890F8FB08DB49097801EB001092
:100D0000C0B28DF816000120D8490870D849087083
:100D1000D848007828B900230122032105A807F04C
:100D200003F81DE0CF484078002803DCCD48407C24
:100D3000002804DD0F21C84880F8141910E0C948C4
:100D40008078002803DCC748807C002804DDF0217F
:100D5000C14880F8141903E00021BF4880F8141935
:100D60000BF01EFA20BB0BF02DFA08BB00200590FB
:100D700006900C208DF81400FF208DF81500B64861
:100D800090F8FB08B849097801EB0010C0B28DF863
:100D900016000120B5490870B5490870B5480078BB
:100DA00028B900230122032105A806F0BDFF02E0B7
:100DB0000020B049087007F029FB00200790FDE3F0
:100DC000AD49079801EB00100078012841D10020BF
:100DD0008DF81300FF218DF814109F4890F8FB0840
:100DE000A149097801EB0010C1B28DF8151001215D
:100DF0008DF81610A14801788DF817100088010AA7
:100E00008DF818109D480068010C8DF819109B484A
:100E10000068010E8DF81A1008208DF812000020CD
:100E20008DF8110007988DF8100000208F49087088
:100E30009DF8100002909DF8110001909DF812009D
:100E4000009001460DF11300DDE9012306F06CFF6F
:100E500000BF8949079801EB00108078012840D134
:100E60008DF81300FF218DF814107B4890F8FB08D3
:100E70007D49097801EB0010C1B28DF815100121F0
:100E80008DF816107E4801788DF817100088010A39
:100E90008DF818107A480068010C8DF81910784800
:100EA0000068010E8DF81A1008208DF8120000203D
:100EB0008DF8110007988DF8100000206B4908701C
:100EC0009DF8100002909DF8110001909DF812000D
:100ED000009001460DF11300DDE9012306F024FF27
:100EE00000BF6549079801EB00100079012841D146
:100EF00002208DF81300FF218DF81410564890F849
:100F0000FB085949097801EB0010C1B28DF81510A2
:100F100001218DF816105B4801788DF817100088B4
:100F2000010A8DF8181057480068010C8DF8191047
:100F300054480068010E8DF81A1008208DF8120030
:100F400000208DF8110007988DF810000020474907
:100F500008709DF8100002909DF8110001909DF816
:100F60001200009001460DF11300DDE9012306F0A7
:100F7000DBFE00BF4049079801EB00108079012893
:100F800041D103208DF81300FF218DF81410324851
:100F900090F8FB083449097801EB0010C1B28DF8D4
:100FA000151001218DF81610374801788DF81710AB
:100FB0000088010A8DF8181033480068010C8DF87C
:100FC000191031480068010E8DF81A1008208DF8AC
:100FD000120000208DF8110007988DF810000020F5
:100FE000224908709DF8100002909DF811000190B0
:100FF0009DF81200009001460DF11300DDE9012378
:1010000006F092FE00BF1C49079801EB0010007A21
:1010100001285ED104208DF81300FF218DF81410F3
:101020000D4890F8FB081049097801EB0010C1B297
:101030008DF8151001218DF81610144801788DF8DF
:1010400017100088010A8DF8181010480068010C6C
:101050008DF819100D481BE0F48200206201002079
:1010600071010020FA9800200001002008010020F2
:101070005901002058010020AD9A0020A80100204D
:10108000B8010020B0010020C0010020C8010020EC
:101090000068010E8DF81A1008208DF8120000204B
:1010A0008DF8110007988DF810000020FE49087097
:1010B0009DF8100002909DF8110001909DF812001B
:1010C000009001460DF11300DDE9012306F02CFE2E
:1010D00000BFF649079801EB0010807A012841D142
:1010E00005208DF81300FF218DF81410F04890F8BA
:1010F000FB08F049097801EB0010C1B28DF815101A
:1011000001218DF81610EC4801788DF81710008831
:10111000010A8DF81810E8480068010C8DF81910C4
:10112000E5480068010E8DF81A1008208DF81200AD
:1011300000208DF8110007988DF810000020DA4982
:1011400008709DF8100002909DF8110001909DF824
:101150001200009001460DF11300DDE9012306F0B5
:10116000E3FD00BFD149079801EB0010007B012887
:101170002FD106208DF81300FF218DF81410CC48D4
:1011800090F8FB08CB49097801EB0010C1B28DF84B
:10119000151001218DF8161004208DF81200002082
:1011A0008DF8110007988DF810000020BE490870D6
:1011B0009DF8100002909DF8110001909DF812001A
:1011C000009001460DF11300DDE9012306F0ACFDAE
:1011D00000BFB649079801EB0010807B01282FD192
:1011E00007208DF81300FF218DF81410B04890F8F7
:1011F000FB08B049097801EB0010C1B28DF8151059
:1012000001218DF8161004208DF8120000208DF8B1
:10121000110007988DF810000020A34908709DF870
:10122000100002909DF8110001909DF812000090AE
:1012300001460DF11300DDE9012306F075FD00BF45
:101240009A49079801EB00104078012841D100200D
:101250008DF81300FF218DF81410954890F8FB08C5
:101260009449097801EB0010C1B28DF815100121E5
:101270008DF81610914801788DF817100088010A32
:101280008DF818108D480068010C8DF819108B48E6
:101290000068010E8DF81A1008208DF81200012048
:1012A0008DF8110007988DF8100001207E49087014
:1012B0009DF8100002909DF8110001909DF8120019
:1012C000009001460DF11300DDE9012306F02CFD2D
:1012D00000BF7649079801EB0010C078012840D183
:1012E0008DF81300FF218DF81410714890F8FB0859
:1012F0007049097801EB0010C1B28DF81510012179
:101300008DF816106E4801788DF817100088010AC4
:101310008DF818106A480068010C8DF8191068489B
:101320000068010E8DF81A1008208DF812000120B7
:101330008DF8110007988DF8100001205A490870A7
:101340009DF8100002909DF8110001909DF8120088
:10135000009001460DF11300DDE9012306F0E4FCE5
:1013600000BF5249079801EB00104079012841D194
:1013700002208DF81300FF218DF814104C4890F8CE
:10138000FB084C49097801EB0010C1B28DF815102B
:1013900001218DF816104B4801788DF81710008840
:1013A000010A8DF8181047480068010C8DF81910D3
:1013B00044480068010E8DF81A1008208DF81200BC
:1013C00001208DF8110007988DF810000120364992
:1013D00008709DF8100002909DF8110001909DF892
:1013E0001200009001460DF11300DDE9012306F023
:1013F0009BFC00BF2D49079801EB0010C079012824
:1014000041D103208DF81300FF218DF814102848D6
:1014100090F8FB082749097801EB0010C1B28DF85C
:10142000151001218DF81610274801788DF8171036
:101430000088010A8DF8181023480068010C8DF807
:10144000191021480068010E8DF81A1008208DF837
:10145000120001208DF8110007988DF8100001206E
:10146000114908709DF8100002909DF8110001903C
:101470009DF81200009001460DF11300DDE90123F3
:1014800006F052FC00BF0949079801EB0010407AB2
:10149000012854D104208DF81300FF218DF8141079
:1014A000034890F8FB0811E008010020AD9A0020E5
:1014B000F482002000010020D0010020AC010020B7
:1014C000BC010020B4010020C4010020FE490978BD
:1014D00001EB0010C1B28DF8151001218DF8161026
:1014E000FA4801788DF817100088010A8DF8181055
:1014F000F6480068010C8DF81910F4480068010ED8
:101500008DF81A1008208DF8120001208DF81100B6
:1015100007988DF810000120ED4908709DF8100023
:1015200002909DF8110001909DF812000090014674
:101530000DF11300DDE9012306F0F6FB00BFE549DC
:10154000079801EB0010C07A012843D105208DF8DF
:101550001300FF218DF81410DF4890F8FB08DA49DA
:10156000097801EB0010C1B28DF8151001218DF83A
:101570001610DA4801788DF817100088010A8DF8E6
:101580001810D6480068010C8DF81910D34800686F
:10159000010E8DF81A1008208DF8120001208DF828
:1015A000110007988DF810000120C94908709DF8B6
:1015B000100002909DF81100019000E07CE09DF881
:1015C0001200009001460DF11300DDE9012306F041
:1015D000ABFB00BFBF49079801EB0010407B01281F
:1015E0002FD106208DF81300FF218DF81410BA4872
:1015F00090F8FB08B449097801EB0010C1B28DF8EE
:10160000151001218DF8161004208DF8120001200C
:101610008DF8110007988DF810000120AC49087072
:101620009DF8100002909DF8110001909DF81200A5
:10163000009001460DF11300DDE9012306F074FB73
:1016400000BFA449079801EB0010C07B01282FD1EF
:1016500007208DF81300FF218DF814109E4890F894
:10166000FB089949097801EB0010C1B28DF81510FB
:1016700001218DF8161004208DF8120001208DF83C
:10168000110007988DF810000120914908709DF80D
:10169000100002909DF8110001909DF8120000903A
:1016A00001460DF11300DDE9012306F03DFB00BF0B
:1016B0000798401CC0B2079007980D28FFF680AB32
:1016C00000200790FEE38649079801EB00100078A0
:1016D000012841D100208DF8130000218DF814104D
:1016E0007D4890F8FB087849097801EB0010C1B2F9
:1016F0008DF8151001218DF816107A4801788DF8B3
:1017000017100088010A8DF8181076480068010C3F
:101710008DF8191073480068010E8DF81A10082012
:101720008DF8120000208DF8110007988DF8100038
:101730000020674908709DF8100002909DF8110084
:1017400001909DF81200009001460DF11300DDE9B3
:10175000012306F0E9FA00BF6149079801EB001088
:101760008078012840D18DF8130000218DF81410E5
:10177000594890F8FB085449097801EB0010C1B2B0
:101780008DF8151001218DF81610574801788DF845
:1017900017100088010A8DF8181053480068010CD2
:1017A0008DF8191050480068010E8DF81A100820A5
:1017B0008DF8120000208DF8110007988DF81000A8
:1017C0000020434908709DF8100002909DF8110018
:1017D00001909DF81200009001460DF11300DDE923
:1017E000012306F0A1FA00BF3D49079801EB001064
:1017F0000079012841D102208DF8130000218DF8D5
:101800001410354890F8FB082F49097801EB0010B7
:10181000C1B28DF8151001218DF8161033480178EA
:101820008DF817100088010A8DF818102F480068ED
:10183000010C8DF819102D480068010E8DF81A1052
:1018400008208DF8120000208DF8110007988DF8FF
:10185000100000201E4908709DF8100002909DF8AD
:10186000110001909DF81200009001460DF1130047
:10187000DDE9012306F058FA00BF1949079801EB8A
:1018800000108079012859D103208DF81300002120
:101890008DF81410104890F8FB080B49097801EBFB
:1018A0000010C1B28DF8151001218DF816101048E6
:1018B00001788DF817100088010A8DF818100C486F
:1018C0000068010C16E0000000010020CC0100209F
:1018D00008010020AD9A0020F4820020D0010020F1
:1018E000AD9B0020A8010020B8010020B00100201D
:1018F000C00100208DF81910FE480068010E8DF817
:101900001A1008208DF8120000208DF81100079899
:101910008DF810000020F84908709DF81000029022
:101920009DF8110001909DF81200009001460DF104
:101930001300DDE9012306F0F7F900BFEF4907982E
:1019400001EB0010807A012841D105208DF81300A9
:1019500000218DF81410EA4890F8FB08E94909784D
:1019600001EB0010C1B28DF8151001218DF8161091
:10197000E54801788DF817100088010A8DF81810D5
:10198000E1480068010C8DF81910DF480068010E6D
:101990008DF81A1008208DF8120000208DF8110023
:1019A00007988DF810000020D34908709DF81000AA
:1019B00002909DF8110001909DF8120000900146E0
:1019C0000DF11300DDE9012306F0AEF900BFCB49AC
:1019D000079801EB0010007A012841D104208DF80E
:1019E000130000218DF81410C54890F8FB08C54974
:1019F000097801EB0010C1B28DF8151001218DF8A6
:101A00001610C24801788DF817100088010A8DF869
:101A10001810BE480068010C8DF81910BB4800680A
:101A2000010E8DF81A1008208DF8120000208DF894
:101A3000110007988DF810000020AF4908709DF83C
:101A4000100002909DF8110001909DF81200009086
:101A500001460DF11300DDE9012306F065F900BF31
:101A6000A649079801EB0010007B012838D1062019
:101A70008DF8130000218DF81410A14890F8FB0890
:101A8000A049097801EB0010C1B28DF815100121B1
:101A90008DF8161000218DF817108DF818108DF89C
:101AA00019108DF81A1008208DF8120000208DF8FA
:101AB000110007988DF8100000208F4908709DF8DC
:101AC000100002909DF8110001909DF81200009006
:101AD00001460DF11300DDE9012306F025F900BFF1
:101AE0008649079801EB0010807B012838D1072038
:101AF0008DF8130000218DF81410814890F8FB0830
:101B00008049097801EB0010C1B28DF81510012150
:101B10008DF8161000218DF817108DF818108DF81B
:101B200019108DF81A1008208DF8120000208DF879
:101B3000110007988DF8100000206F4908709DF87B
:101B4000100002909DF8110001909DF81200009085
:101B500001460DF11300DDE9012306F0E5F800BFB1
:101B60006649079801EB00104078012841D1002018
:101B70008DF8130000218DF81410614890F8FB08CF
:101B80006049097801EB0010C1B28DF815100121F0
:101B90008DF816105E4801788DF817100088010A3C
:101BA0008DF818105A480068010C8DF81910584823
:101BB0000068010E8DF81A1008208DF8120001201F
:101BC0008DF8110007988DF8100001204A4908701F
:101BD0009DF8100002909DF8110001909DF81200F0
:101BE000009001460DF11300DDE9012306F09CF899
:101BF00000BF4249079801EB0010C078012840D18E
:101C00008DF8130000218DF814103D4890F8FB0862
:101C10003C49097801EB0010C1B28DF81510012183
:101C20008DF816103B4801788DF817100088010ACE
:101C30008DF8181037480068010C8DF819103548D8
:101C40000068010E8DF81A1008208DF8120001208E
:101C50008DF8110007988DF81000012026490870B2
:101C60009DF8100002909DF8110001909DF812005F
:101C7000009001460DF11300DDE9012306F054F850
:101C800000BF1E49079801EB00104079012856D18A
:101C900002208DF8130000218DF81410184890F8D8
:101CA000FB081849097801EB0010C1B28DF8151036
:101CB00001218DF81610184801788DF8171000884A
:101CC000010A8DF8181014480068010C8DF81910DD
:101CD00011480068010E8DF81A1008208DF81200C6
:101CE00001208DF8110007988DF81000012002499D
:101CF000087013E0C001002008010020AD9B002007
:101D0000F482002000010020D0010020C801002042
:101D1000AC010020BC010020B40100209DF810009F
:101D200002909DF8110001909DF81200009001466C
:101D30000DF11300DDE9012305F0F6FF00BFFE49B8
:101D4000079801EB0010C079012841D103208DF8DC
:101D5000130000218DF81410F84890F8FB08F8499A
:101D6000097801EB0010C1B28DF8151001218DF832
:101D70001610F44801788DF817100088010A8DF8C4
:101D80001810F0480068010C8DF81910ED48006833
:101D9000010E8DF81A1008208DF8120001208DF820
:101DA000110007988DF810000120E74908709DF890
:101DB000100002909DF8110001909DF81200009013
:101DC00001460DF11300DDE9012305F0ADFF00BF71
:101DD000D949079801EB0010C07A012841D10520AC
:101DE0008DF8130000218DF81410D44890F8FB08EA
:101DF000D349097801EB0010C1B28DF8151001210B
:101E00008DF81610D14801788DF817100088010A56
:101E10008DF81810CD480068010C8DF81910CB48CA
:101E20000068010E8DF81A1008208DF812000120AC
:101E30008DF8110007988DF810000120C249087034
:101E40009DF8100002909DF8110001909DF812007D
:101E5000009001460DF11300DDE9012305F064FF58
:101E600000BFB549079801EB0010407A012843D123
:101E700004208DF8130000218DF81410AF4890F85D
:101E8000FB08AF49097801EB0010C1B28DF81510BD
:101E900001218DF81610AE4801788DF817100088D2
:101EA000010A8DF81810AA480068010C8DF8191065
:101EB000A7480068010E8DF81A1008208DF812004E
:101EC000012000E09CE08DF8110007988DF81000CB
:101ED00001209D4908709DF8100002909DF81100A6
:101EE00001909DF81200009001460DF11300DDE90C
:101EF000012305F019FF00BF8F49079801EB00107F
:101F0000407B012838D106208DF8130000218DF880
:101F100014108A4890F8FB088949097801EB0010F1
:101F2000C1B28DF8151001218DF8161000218DF821
:101F300017108DF818108DF819108DF81A10082048
:101F40008DF8120001208DF8110007988DF810000F
:101F500001207D4908709DF8100002909DF8110045
:101F600001909DF81200009001460DF11300DDE98B
:101F7000012305F0D9FE00BF6F49079801EB00105F
:101F8000C07B012838D107208DF8130000218DF87F
:101F900014106A4890F8FB086949097801EB0010B1
:101FA000C1B28DF8151001218DF8161000218DF8A1
:101FB00017108DF818108DF819108DF81A100820C8
:101FC0008DF8120001208DF8110007988DF810008F
:101FD00001205D4908709DF8100002909DF81100E5
:101FE00001909DF81200009001460DF11300DDE90B
:101FF000012305F099FE00BF0798401CC0B207906E
:1020000007980D28FFF65FAB2021524807F064F8CF
:10201000044610214F4807F068F884420AD0802116
:102020004C4807F059F8044640214A4807F05DF84B
:1020300084423ED10020059006902021454807F0BB
:102040004BF804901021434807F04FF8039080218B
:10205000404807F041F8029040213E4807F045F81B
:1020600001903D480078401C3B49087008460078C4
:1020700014281DDB0020087003208DF81400FF20B9
:102080008DF815002D4890F8FB182D48007800EBCE
:102090000110C0B28DF8160002202B4908702F489D
:1020A000007828B900230222082105A805F03CFE8B
:1020B00000BF0020079001F0C7B92B2107984843C3
:1020C0001E4901EB8000B0F84A10079800EB400071
:1020D000234A02EBC000B0F90A0081427EDB079878
:1020E00000EB40001F4911F83000401CC1B20798B6
:1020F00000EB40001B4A02F83010079800EB40004C
:10210000114611F83000012869DB0021079800EB27
:10211000400002F83010079800EB400002EBC000CE
:102120008170079800EB400002EBC00001740121B0
:102130000D4A07981AE00000AD9B0020F4820020B1
:1021400000010020C401002008010020D40100206B
:10215000CC01002000080140720100204E01002047
:102160004A960020C29700200D99002002EB001033
:1021700001701146079801EB0010407801282CD11E
:102180000021079802EB00104170FE480172FE48E2
:1021900000680068012207998A409043FA4909685B
:1021A0000860F849079808710120F8490870F54857
:1021B00000790690F34840790590F24880790490C0
:1021C0000146F048C01DDDE9052305F0ADFD002105
:1021D000EF4A079802EB0010017001E056E054E06E
:1021E00009F01AFF09F028FFEA484088401C01B2B4
:1021F000079800EB4000E84A02EBC0004181E54847
:10220000008C01B2079800EB400002EBC000018196
:102210000020E249C871FF21E0480172E04890F8CF
:10222000FB08E049097801EB0010C1B2DB484172BC
:1022300000218172DC4800680068012207998A4009
:102240001043D949096808600820D44988710020E2
:102250004871079808710020CC490870CC4907984C
:1022600001EB0010007800280FD1CC4800790690CF
:10227000CA4840790590C948807904900146C7480A
:10228000C01DDDE9052305F04FFD76E12B21079800
:102290004843C34901EB8000B0F84A10079800EBAF
:1022A0004000BD4A02EBC000B0F9080081427DDB6E
:1022B000079800EB4000BD4901EBC0008078401C4E
:1022C000C1B2079800EB4000B84A02EBC000817031
:1022D000079800EB4000114601EBC0008078012810
:1022E000D3DB0021079800EB400002EBC0008170B7
:1022F000079800EB400002F83010079800EB400010
:1023000002EBC00001740121A94A079802EB0010FA
:1023100041701146079801EB0010007801282CD17C
:102320000021079802EB001001709C4801729E4842
:1023300000680068012207998A4090439A49096819
:1023400008609649079808710020904908709348E2
:1023500000790690914840790590904880790490E2
:1023600001468E48C01DDDE9052305F0DDFC002196
:10237000874A079802EB001041708648008801B236
:10238000079800EB4000844A02EBC000418181487D
:10239000408C401C01B2079800EB400002EBC000EB
:1023A000018100207749C871FF2100E039E07548BC
:1023B00001727B4890F8FB087A49097801EB00101C
:1023C000C1B270484172002181726F480068006894
:1023D000012207998A4010436B4909680860082068
:1023E0006849887101204871079808710120674980
:1023F00008706749079801EB0010407800280FD15A
:102400006048007906905F48407905905D48807982
:10241000049001465B48C01DDDE9052305F084FCFE
:10242000ABE00021079800EB4000604A02EBC000DF
:102430008170079800EB400002F83010079800EB1D
:102440004000114601EBC000007C401CC1B207985F
:1024500000EB400002EBC0000174079800EB400065
:10246000114601EBC000007C01287CDB00210798AD
:1024700000EB400002EBC00001744D49079801EBEE
:1024800000100078012837D10021494A079802EB53
:102490000010017041480172434800680068012241
:1024A00007998A4090434049096808603B4907986A
:1024B000087100203549087038480079069037487F
:1024C0004079059035488079049001463348C01D15
:1024D000DDE9052305F028FC2E48008801B20798A5
:1024E00000EB40002C4A02EBC00041810021284A49
:1024F000079802EB001001702D49079801EB0010BE
:102500004078012839D10021294A079802EB0010B0
:1025100041701C4801721C4800680068012207993C
:102520008A4090431849096808601649079808715D
:102530000120164908701348007906901148407927
:10254000059010488079049001460E48C01DDDE9D1
:10255000052305F0E9FB0F48008C01B2079800EB5A
:1025600040000D4A00E008E002EBC00001810021BC
:10257000074A079802EB001041702B210798484347
:10258000074917E08C9C00207C01002008010020F6
:10259000DD990020829700204A9600207D9C002033
:1025A000F48200200001002078010020C297002062
:1025B0000D99002001EB8000B0F84C10079800EB5B
:1025C0004000FE4A02EBC000B0F90E0081427CDC04
:1025D0002B2107984843FA4901EB8000B0F84C00E2
:1025E000002872D0079800EB4000F64901EBC000CC
:1025F0004078401CC1B2079800EB4000F14A02EB62
:10260000C0004170079800EB4000114601EBC0008C
:10261000407801287EDB0021079800EB400002EBA8
:10262000C0004170079800EB400002EBC000C17091
:10263000079800EB400002EBC00041740121E24A20
:10264000079802EB001081701146079801EB00100B
:10265000C07801282CD10021079802EB0010C1702E
:10266000DA480172DA4800680068012207998A4056
:102670009043D74909680860D64907980871012036
:10268000D5490870D14800790690D0484079059026
:10269000CE48807904900146CC48C01DDDE9052371
:1026A00005F042FB0021CD4A079802EB0010817033
:1026B00009F0B2FC09F0C0FCC948C088401E01B254
:1026C000079800EB4000BD4A00E04DE002EBC0007F
:1026D000C181C348808C01B2079800EB400002EB37
:1026E000C00081810120BF49C871FF21BD4801722E
:1026F000B34890F8FB08BC49097801EB0010C1B25F
:10270000B848417200218172B8480068006801220F
:10271000079900E027E08A401043B449096808603F
:102720000820B0498871002048710798087100207E
:10273000A9490870A949079801EB00108078002882
:1027400011D1A5490870A74800790690A54840799D
:102750000590A448807904900146A248C01DDDE997
:10276000052305F0E1FA9DE12B21079848439449A0
:1027700001EB8000B0F84C10079800EB40008F4A46
:1027800002EBC000B0F90C0081427DDC079800EB41
:1027900040008C4901EBC000C078401CC1B20798D2
:1027A00000EB4000874A02EBC000C170079800EBC5
:1027B0004000114601EBC000C0780128D3DB0021A6
:1027C000079800EB400002EBC0004170079800EB57
:1027D000400002EBC000C170079800EB400002EB24
:1027E000C00041740121784A079802EB0010C170C3
:1027F0001146079801EB0010807801282CD10021A8
:10280000079802EB001081707648017277480068E3
:102810000068012207998A4090437449096808605A
:1028200073490798087100206B4908706D4800795A
:1028300006906C48407905906A488079049001467A
:102840006848C01DDDE9052305F06EFA0021634AE2
:10285000079802EB0010C1706148808801B20798A8
:1028600000EB4000554A02EBC000C1815C48C08CBF
:10287000401E01B2079800EB400002EBC0008181CE
:1028800001205249C87100E03DE0FF214F4801722C
:102890004B4890F8FB085449097801EB0010C1B28D
:1028A0004A4841720021817249480068006801224B
:1028B00007998A401043464909680860082043493F
:1028C00088710120487107980871012042490870F9
:1028D0004249079801EB0010C078002812D101206E
:1028E0003D4908703948007906903848407905908C
:1028F00036488079049001463448C01DDDE905233F
:1029000005F012FACEE00021079800EB40002D4AB6
:1029100002EBC0004170079800EB400002EBC000E2
:10292000C170079800EB4000114601EBC000407CED
:10293000401CC1B2079800EB400002EBC00041749C
:10294000079800EB4000114601EBC000407C0128D5
:102950007EDB0021079800EB400002EBC0004174D1
:102960001949079801EB0010C078012859D10021BE
:10297000079800EB400002EBC0004174124A079830
:1029800002EB0010C1701148017211480068006824
:10299000012207998A4090430D49096808600B4954
:1029A0000798087101200C490870084800790690C2
:1029B000064840790590054880791BE04A9600203A
:1029C000F4820020C29700200D990020AA9C0020CC
:1029D0008C0100208C9C002008010020DD99002043
:1029E000829700209B9C002000010020880100208D
:1029F0007D9C002004900146F948DDE9052305F09F
:102A000093F9F848808C01B2079800EB4000F64A31
:102A100002EBC00081810021F44A079802EB00100C
:102A2000C170F349079801EB00108078012839D173
:102A30000021EF4A079802EB00108170ED48017207
:102A4000ED4800680068012207998A40904300E041
:102A500028E0E94909680860E649079808710020FC
:102A6000E6490870E34800790690E248407905900D
:102A7000E048807904900146DE48C01DDDE9052369
:102A800005F052F9D748808801B2079800EB400062
:102A9000D54A02EBC000C1810021D44A079802EB5D
:102AA000001081702B2107984843D54901EB800025
:102AB000B0F95410079800EB4000CB4A02EBC0007D
:102AC000B0F9020081427DDB079800EB4000CD4960
:102AD00001EBC0000079401CC1B2079800EB400038
:102AE000C84A02EBC0000171079800EB4000114694
:102AF00001EBC000007901287EDB0021079800EB84
:102B0000400002EBC0000171079800EB400002EBAF
:102B1000C0008171079800EB400002EBC000817497
:102B20000121B34A079802EB001001711146079882
:102B300001EB0010407901282CD10021079802EB0D
:102B400000104171B0480172B0480068006801226D
:102B500007998A409043AD4909680860AA490798D7
:102B600008710120A5490870A74800790690A64879
:102B700040790590A448807904900146A248C01D80
:102B8000DDE9052305F0D0F80021984A079802EB0B
:102B90000010017109F040FA09F04EFA914840899D
:102BA000401C01B2079800EB40008F4A02EBC000C6
:102BB00041808C48018D079800EB400022F83010CE
:102BC000022000E040E09249C871FF219048017264
:102BD0008B4890F8FB088F49097801EB0010C1B2CF
:102BE0008B484172002181728B4800680068012285
:102BF00007998A40104300E025E08749096808608A
:102C000008208349887100204871079808710020C6
:102C10007A4908707549079801EB0010007900287F
:102C200011D1764908707A48007906907848407941
:102C3000059077488079049001467548C01DDDE90C
:102C4000052305F071F893E12B21079848436C495F
:102C500001EB8000B0F95410079800EB4000624A85
:102C600032F9300081427DDB079800EB4000654976
:102C700001EBC0008079401CC1B2079800EB400016
:102C8000604A02EBC0008171079800EB40001146DA
:102C900001EBC00080790128D5DB0021079800EB0B
:102CA000400002EBC0000171079800EB400002EB0E
:102CB000C0008171079800EB400002EBC0008174F6
:102CC00001214B4A079802EB001041711146079809
:102CD00001EB0010007901282CD10021079802EBAC
:102CE000001001714A4801724B48006800680122D7
:102CF00007998A4090434849096808604449079801
:102D0000087100203D49087041480079069040480C
:102D1000407905903E488079049001463C48C01DAA
:102D2000DDE9052305F000F80121304A079802EBA0
:102D3000001041712B480189079800EB40002A4A96
:102D400002EBC00041802748408D401C01B207982B
:102D500000EB400022F8301002202B49C871FF21FF
:102D6000294800E05AE00172254890F8FB082949FB
:102D7000097801EB0010C1B2234841720021817231
:102D8000224800680068012207998A4010431F49C1
:102D90000968086008201C4988710120487107985B
:102DA00008710120154908701049079801EB0010BF
:102DB0004079002812D1012010490870124800798A
:102DC00006901148407905900F488079049001469B
:102DD0000D48C01DDDE9052304F0A6FFC8E0000092
:102DE000B19C0020829700204A960020DD990020A7
:102DF0000D9900209B9C00208801002008010020E4
:102E0000F4820020C2970020C89C0020840100208A
:102E1000B99C0020000100208001002000210798BB
:102E200000EB4000FE4A02EBC0000171079800EB86
:102E3000400002EBC0008171079800EB4000114692
:102E400001EBC000807C401CC1B2079800EB400041
:102E500002EBC0008174079800EB4000114601EBC3
:102E6000C000807C01287DDB0021079800EB40003A
:102E700002EBC0008174EB49079801EB0010007968
:102E8000012836D10021E74A079802EB00100171B2
:102E9000E5480172E54800680068012207998A4008
:102EA0009043E24909680860DF49079808710020EB
:102EB000DF490870DC4800790690DB4840790590CE
:102EC000D948807904900146D748C01DDDE9052323
:102ED00004F02AFFD7480189079800EB4000D64A42
:102EE00002EBC00041800021D44A079802EB001099
:102EF0000171CC49079801EB00104079012837D1C6
:102F00000021C84A079802EB00104171CC480172B9
:102F1000CC4800680068012207998A409043C9495B
:102F200009680860C649079808710120C0490870FF
:102F3000C34800790690C24840790590C04880791E
:102F400004900146BE48C01DDDE9052304F0ECFEF7
:102F5000B848018D079800EB4000B74A22F83010BE
:102F6000002100E004E0B54A079802EB001041712F
:102F70002B2107984843B44901EB8000B0F9561063
:102F8000079800EB4000AC4A02EBC000B0F9060025
:102F900081427DDC079800EB4000A14901EBC000B5
:102FA0004079401CC1B2079800EB40009C4A02EBFC
:102FB000C0004171079800EB4000114601EBC000D2
:102FC000407901287EDB0021079800EB400002EBEE
:102FD000C0004171079800EB400002EBC000C171D6
:102FE000079800EB400002EBC000C17401218D4A3C
:102FF000079802EB001081711146079801EB001051
:10300000C07901282CD10021079802EB0010C17172
:103010008E4801728E4800680068012207998A4034
:1030200090438B4909680860884907980871012016
:103030007F4908708548007906908448407905905A
:1030400082488079049001468048C01DDDE905234F
:1030500004F06AFE0021794A079802EB00108171A2
:1030600008F0DAFF08F0E8FF7248C089401E01B29C
:10307000079800EB4000704A02EBC000C1806D4829
:10308000818D079800EB400002EBC000818000E0DA
:103090003FE003206F49C871FF216E4801726A4802
:1030A00090F8FB086C49097801EB0010C1B269483F
:1030B0004172002181726948006800680122079905
:1030C0008A4000E024E01043644909680860082051
:1030D00060498871002048710798087100205449A0
:1030E00008705649079801EB0010807900280FD12D
:1030F000584800790690574840790590554880799E
:10310000049001465348C01DDDE9052304F00CFE80
:1031100096E12B21079848434B4901EB8000B0F919
:103120005610079800EB4000434A02EBC000B0F98C
:103130000400814272DC079800EB4000384901EB43
:10314000C000C079401CC1B2079800EB4000344A6F
:1031500002EBC000C171079800EB4000114601EB83
:10316000C000C0790128D3DB0021079800EB4000A4
:1031700002EBC000C171079800EB400002EBC000F9
:103180004171079800EB400002EBC000C1740121BF
:10319000244A079802EB0010C1711146079801EB11
:1031A0000010807901282CD10021079802EB001033
:1031B0008171284801722948006800680122079936
:1031C0008A40904325490968086022490798087198
:1031D0000020174908701F48007906901D48407963
:1031E00005901C488079049001461A48C01DDDE90D
:1031F000052304F099FD0021104A079802EB001006
:10320000C1710C488189079800EB40000A4A02EB23
:10321000C000C1800748C08D401E21E065E000006D
:10322000C29700200D990020B99C00208001002049
:1032300008010020829700204A960020DD99002096
:10324000C89C002084010020F4820020E69C00201D
:1032500094010020D79C0020000100209001002054
:1032600001B2079800EB400002EBC0008180032010
:10327000FE49C871FF21FD480172FD4890F8FB0826
:10328000FC49097801EB0010C1B2F84841720021F5
:103290008172F94800680068012207998A4010434A
:1032A000F549096808600820F049887101204871D3
:1032B000079808710120F1490870F149079801EB5E
:1032C0000010C07900280FD1E84800790690E7483F
:1032D00040790590E548807904900146E348C01D97
:1032E000DDE9052304F020FDAAE00021079800EBAA
:1032F0004000E44A02EBC000C171079800EB4000B7
:1033000002EBC0004171079800EB4000114601EB51
:10331000C000C07C401CC1B2079800EB400002EB2B
:10332000C000C174079800EB4000114601EBC000DB
:10333000C07C01287EDB0021079800EB400002EBF7
:10334000C000C174D049079801EB001080790128B2
:1033500036D10021CC4A079802EB00108171CB488E
:103360000172CB4800680068012207998A409043A7
:10337000C74909680860C549079808710020BF4916
:103380000870C24800790690C04840790590BF484F
:10339000807904900146BD48C01DDDE9052304F095
:1033A000C3FCBC488189079800EB4000BA4A02EB95
:1033B000C000C1800021B24A079802EB0010817161
:1033C000B149079801EB0010C079012838D10021DC
:1033D000AD4A079802EB0010C171A4480172A648DB
:1033E00000680068012207998A409043A249096851
:1033F00008609E49079808710120A04908709B4801
:103400000079069099484079059098488079049011
:1034100001469648C01DDDE9052304F085FC9D4862
:10342000818D079800EB40009B4A02EBC000818031
:10343000002100E004E0924A079802EB0010C171FD
:103440000798401CC0B2079007980D28FEF635AECD
:10345000924800680068069004F0ECFC034690482F
:1034600000680068069004F0E5FC03448D4800689D
:103470000068069004F0DEFC03448548006800689C
:10348000069004F0D7FC0344874800680068069063
:1034900004F0D0FC0344854800680068069004F0FE
:1034A000C9FC1844824909780844824909780844CB
:1034B000814909780844814908708148006800689A
:1034C000069004F0B7FC03467E480068006806904A
:1034D00004F0B0FC03447C4800680068069004F0E7
:1034E000A9FC0344644800680068069004F0A2FC4C
:1034F0000344764800680068069004F09BFC04468C
:10350000734800680068069004F094FC20447149F8
:1035100009780844034369494B706F480068069076
:1035200004F088FC03466D480068069004F082FCB5
:1035300003446B480068069004F07CFC034469482F
:103540000068069004F076FC18445949097808444C
:103550005849097808445949087463480068069036
:1035600004F068FC034661480068069004F062FCC1
:1035700003445F480068069004F05CFC03445D4827
:103580000068069004F056FC18444949097808443C
:10359000484909780844494948743548B0F9E4086D
:1035A000642190FBF1F05449B1F9001088425BDBD3
:1035B0003448007B401C334908730846007B0128CF
:1035C00053DB00200873887388754873C873C87507
:1035D00001204A4908730846407B01281DD100207C
:1035E00048730021464801720020454908710120B6
:1035F0002249087042480079069041484079059078
:103600003F488079049001463D48C01DDDE905230F
:1036100004F08AFB00203B49087308F0FDFC08F029
:103620000BFD1C48408B00B2334908801948008FBD
:1036300000B2354908801748808B34490880154806
:10364000808F3349088006203249C871FF213148F4
:103650000172074890F8FB080649097801EB001051
:10366000C1B22C48417257E079E077E0E69C002037
:10367000F4820020000100209401002008010020B5
:10368000DD990020C29700200D990020D79C0020D2
:1036900090010020829700204A96002078010020A7
:1036A000800100208801002098010020A001002056
:1036B000D8000020D900002009010020FA9800203D
:1036C0007C010020840100208C0100209C0100204E
:1036D000A40100200A010020A8010020B001002060
:1036E000B8010020C0010020AC010020B40100207E
:1036F000BC010020C4010020500100208D9B00204F
:10370000409D00209D9B002052010020540100207C
:1037100056010020319D002000218172C172017389
:10372000417381730820DA4988710020487108715B
:10373000D8490870D848007B00280FD1D4480079B8
:103740000690D34840790590D1488079049001468D
:10375000CF48C01DDDE9052304F0E6FA95E1CF4826
:10376000B0F9E408642190FBF1F0CD49B1F9001003
:1037700088427BDBCB48807B401CCA498873084663
:10378000807B0128EADB0020087388738875487302
:10379000C873C8750120C44948730846007B0128D6
:1037A0001CD1002008730021B94801720020B849DB
:1037B0000871B8490870B64800790690B448407955
:1037C0000590B348807904900146B148C01DDDE9F9
:1037D000052304F0A9FA0020AF494873B348008BD1
:1037E00000B2B3490880B148408F00B2AC490880AC
:1037F000AE48808BAF490880AC48808FAE490880C6
:103800000620AE49C871FF21AC480172A34890F868
:10381000FB08AB49097801EB0010C1B2A74841721F
:1038200000218172C1720173417381730820A34921
:1038300088710120487100200871012095490870A5
:103840009548407B002889D19C48007906909B4888
:103850004079059099488079049001469748C01DA9
:10386000DDE9052304F060FA0FE1FFE78B48B0F9CA
:10387000E408642190FBF1F08E49B1F90010884210
:103880007EDC8848407B401C864948730846407B64
:103890000128E9DB00200873887388754873C873B2
:1038A000C8750120804988730846C07B01281DD156
:1038B0000020C873002183480172002081490871EB
:1038C0000120744908707F48007906907D4840794E
:1038D00005907C488079049001467A48C01DDDE956
:1038E000052304F021FA00206B49887308F094FB4B
:1038F00008F0A2FB6D48008B00B26D4908806B4850
:10390000008F00B2664908806848C08B694908800A
:103910006648808F6849088007206B49C871FF217D
:10392000694801725D4890F8FB086549097801EB28
:103930000010C1B26448417200218172C1720173EA
:1039400041738173082060498871002048710871B3
:10395000504908705048807B00280FD15A480079A0
:10396000069059484079059057488079049001465F
:103970005548C01DDDE9052304F0D6F985E0FFE7D1
:103980004648B0F9E408642190FBF1F04A49B1F9E6
:103990000010884279DC4348C07B401C4149C87311
:1039A0000846C07B012870DB002008738873887587
:1039B0004873C873C87501203B49C8730846807BAB
:1039C00001281DD10020887300213F48017200208A
:1039D0003D49087101202F4908703B480079069045
:1039E0003948407905903848807904900146364836
:1039F000C01DDDE9052304F097F900202649C873AE
:103A00002A48008B00B22A4908802848008F00B25B
:103A1000234908802548808B264908802348C08F89
:103A20002549088007202749C871FF2125480172D0
:103A30001A4890F8FB082249097801EB0010C1B23E
:103A40002048417200218172C172017341738173F8
:103A500008201C498871012048710020087101204C
:103A60000C4908700C48C07B78B91648007906905C
:103A70001448407905901348807904900146114814
:103A8000C01DDDE9052304F04FF908B010BD0000AA
:103A9000319D0020080100209D9B0020F482002021
:103AA00052010020C29700208D9B002082970020A9
:103AB000500100205401002056010020409D0020AC
:103AC000000100205E9D00204F9D00207FB5002456
:103AD000C8E10025C2E104EB4400E44901EB8000A9
:103AE000405D012842D104EB4400E14901EB800034
:103AF000405DD8BB0D208DF80700FF218DF8081020
:103B0000DC4890F8FB08DC49097801EB0010C1B2F1
:103B10008DF80910601CC1B28DF80A10681CC1B282
:103B20008DF80B1000218DF80C108DF80D1004EBA2
:103B30004400D24901EB8000415D8DF80E10082051
:103B40008DF8060000208DF80500E0B28DF8040025
:103B50000020CB4908709DF804309DF805209DF8A1
:103B600006100DF1070004F0DFF800BF04EB44007D
:103B7000C44901EB8000405D012842D104EB4400C0
:103B8000C14901EB8000405DD8BB0D208DF80700D6
:103B900000218DF80810B74890F8FB08B64909785D
:103BA00001EB0010C1B28DF80910601CC1B28DF894
:103BB0000A10681CC1B28DF80B1000218DF80C1092
:103BC0008DF80D1004EB4400AC4901EB8000415D21
:103BD0008DF80E1008208DF8060000208DF80500E5
:103BE000E0B28DF804000020A54908709DF804306B
:103BF0009DF805209DF806100DF1070004F094F8DB
:103C000000BF04EB4400A14901EB8000405D0128A6
:103C100042D104EB44009E4901EB8000405DD8BBDB
:103C20000D208DF80700FF218DF80810914890F8BD
:103C3000FB089149097801EB0010C1B28DF8091019
:103C4000601CC1B28DF80A10681CC1B28DF80B104F
:103C500000218DF80C108DF80D1004EB44008D49F7
:103C600001EB8000415D8DF80E1008208DF80600F4
:103C700001208DF80500E0B28DF804000120804994
:103C800008709DF804309DF805209DF806100DF190
:103C9000070004F049F800BF04EB44007E4901EB43
:103CA0008000405D012842D104EB44007B4901EBD8
:103CB0008000405DD8BB0D208DF8070000218DF8F5
:103CC00008106C4890F8FB086B49097801EB00106C
:103CD000C1B28DF80910601CC1B28DF80A10681CC1
:103CE000C1B28DF80B1000218DF80C108DF80D105D
:103CF00004EB4400674901EB8000415D8DF80E1034
:103D000008208DF8060001208DF80500E0B28DF83E
:103D1000040001205A4908709DF804309DF80520E0
:103D20009DF806100DF1070003F0FEFF00BF04EB45
:103D300044005B4901EB8000405D012842D104EB67
:103D40004400584901EB8000405DD8BB05208DF848
:103D50000700FF218DF80810464890F8FB084649F7
:103D6000097801EB0010C1B28DF80910601CC1B2D6
:103D70008DF80A10681CC1B28DF80B1000218DF867
:103D80000C108DF80D1004EB4400474901EB800046
:103D9000415D8DF80E1008208DF8060002208DF888
:103DA0000500E0B28DF804000220354908709DF846
:103DB00004309DF805209DF806100DF1070003F072
:103DC000B3FF00BF04EB4400384901EB8000405DC5
:103DD000012842D104EB4400354901EB8000405DED
:103DE000D8BB05208DF8070000218DF80810214868
:103DF00090F8FB082049097801EB0010C1B28DF85A
:103E00000910601CC1B28DF80A10681CC1B28DF88F
:103E10000B1000218DF80C108DF80D1004EB4400F0
:103E2000214901EB8000415D8DF80E1008208DF8CE
:103E3000060002208DF80500E0B28DF80400022093
:103E40000F4908709DF804309DF805209DF8061074
:103E50000DF1070003F068FF00BF6D1C0C2DFFF68D
:103E60003AAE641C0D2CFFF634AE7FBD398C0020B9
:103E7000A98E0020F482002000010020199100206A
:103E800008010020D58C0020458F0020718D002076
:103E9000E18F0020B59100200D8E00207D90002044
:103EA0005192002089930020C1940020ED920020BF
:103EB000259400200020002100BF08E02B2242436F
:103EC000084B03EB8202B2F958201144401C0D2824
:103ED000F4DB0D22B1FBF2F213B2024AA2F8D6389B
:103EE00070470000F482002000B5FFF7E3FF00F008
:103EF00001F800BD002000221F49A1F8D22800BF10
:103F000016E02B2141431C4A02EB8101B1F95420F8
:103F10001949B1F9D2188A4209DD2B214143164AC9
:103F200002EB8101B1F854201349A1F8D228401CBA
:103F30000D28E6DB1049B1F85620A1F8D42800205E
:103F400016E02B2141430C4A02EB8101B1F95620C6
:103F50000949B1F9D4188A4209DA2B214143064AAA
:103F600002EB8101B1F856200349A1F8D428401C86
:103F70000D28E6DB70470000F482002010B5FC48F5
:103F8000B0F8EA0860B1FA48D0F8F408B0F57A7FE2
:103F90007AD8F748B0F8C60840F65431884273DB47
:103FA000F4480078142870DCF148B0F8C60840F6F0
:103FB000C411884269DBEF480078401CED49087065
:103FC000EB48B0F8C60840F62821884227DA0021DD
:103FD000E748A0F8D018B0F8D00841F65831484367
:103FE000642190FBF1F081B2E148A0F8EA18B0F842
:103FF000EA08DF49B1F8C61848434FF47A7190FBDC
:10400000F1F000EB800101EBC00000EB400080000C
:10401000642190FBF1F1D648C0F8F4189FE0D44831
:10402000B0F8C60840F6282188422FDBD048B0F807
:10403000C608B0F52F6F29DA0A21CD48A0F8D018AC
:10404000B0F8D00841F658314843642190FBF1F0B4
:1040500081B2C748A0F8EA18B0F8EA08C449B1F834
:10406000C61848434FF47A7190FBF1F000EB8001E1
:1040700001EBC00000EB40008000642190FBF1F1F7
:10408000BB48C0F8F4186AE071E16BE1B848B0F8D9
:10409000C608B0F52F6F2EDBB548B0F8C60840F65D
:1040A0001C41884227DA1E21B148A0F8D018B0F888
:1040B000D00841F658314843642190FBF1F081B2B9
:1040C000AB48A0F8EA18B0F8EA08A949B1F8C61850
:1040D00048434FF47A7190FBF1F000EB800101EB63
:1040E000C00000EB40008000642190FBF1F1A0488B
:1040F000C0F8F41833E09E48B0F8C60840F61C41FA
:1041000088422CDB9A48B0F8C608B0F5486F26DA2A
:1041100028219748A0F8D018B0F8D00841F65831B7
:104120004843642190FBF1F081B29148A0F8EA186D
:10413000B0F8EA088E49B1F8C61848434FF47A71CE
:1041400090FBF1F000EB800101EBC00000EB4000C0
:104150008000642190FBF1F18548C0F8F418844890
:10416000B0F8C608B0F5486F2EDB8148B0F8C60835
:1041700040F6B241884227DA3C217D48A0F8D018A9
:10418000B0F8D00841F658314843642190FBF1F073
:1041900081B27748A0F8EA18B0F8EA087449B1F893
:1041A000C61848434FF47A7190FBF1F000EB8001A0
:1041B00001EBC00000EB40008000642190FBF1F1B6
:1041C0006B48C0F8F418CDE06948B0F8C60840F66E
:1041D000B24188422EDD6648B0F8C60840F6E44198
:1041E000884227DC46216248A0F8D018B0F8D008F1
:1041F00041F658314843642190FBF1F081B25C48AC
:10420000A0F8EA18B0F8EA085949B1F8C6184843C6
:104210004FF47A7190FBF1F000EB800101EBC000EC
:1042200000EB40008000642190FBF1F15048C0F8A1
:10423000F41897E04E48B0F8C60840F6E4418842CA
:104240002EDD4B48B0F8C60840F64851884227DCBE
:1042500050214748A0F8D018B0F8D00841F658319E
:104260004843642190FBF1F081B24148A0F8EA187C
:10427000B0F8EA083E49B1F8C61848434FF47A71DD
:1042800090FBF1F000EB800101EBC00000EB40007F
:104290008000642190FBF1F13548C0F8F41861E02A
:1042A0003348B0F8C60840F6485188422DDD304802
:1042B000B0F8C608B0F5616F27DC55212C48A0F88E
:1042C000D018B0F8D00841F658314843642190FB2B
:1042D000F1F081B22648A0F8EA18B0F8EA082449BB
:1042E000B1F8C61848434FF47A7190FBF1F000EB37
:1042F000800101EBC00000EB40008000642190FBD6
:10430000F1F11B48C0F8F4182CE01948B0F8C608C1
:10431000B0F5616F26DD64211548A0F8D018B0F81B
:10432000D00841F658314843642190FBF1F081B246
:104330000F48A0F8EA18B0F8EA080D49B1F8C61815
:1043400048434FF47A7190FBF1F000EB800101EBF0
:10435000C00000EB40008000642190FBF1F10448B4
:10436000C0F8F41804F09AF8132006F03FFD10BDD1
:10437000F48200206B01002000BFFEE730B5154835
:10438000006800F0030521E0134807F0B4FE04467E
:104390006CB112480068C0082060114800682071A4
:1043A00010480068A06010480168E16004E00F4810
:1043B0000088401C0D4908800648006840F0200035
:1043C000044908600846006800F00305002DDBD1B1
:1043D00030BD00000C640040C4420020B0650040C5
:1043E000B4650040B8650040BC650040E0000020B6
:1043F00030B51548006800F0030521E0134807F0C8
:104400007AFE04466CB112480068C008206011486A
:104410000068207110480068A06010480168E160E1
:1044200004E00F480088401C0D49088006480068D9
:1044300040F02000044908600846006800F00305C9
:10444000002DDBD130BD00000C680040D0420020C0
:10445000B0690040B4690040B8690040BC690040E0
:10446000E200002000B54FF400720B490B4807F042
:1044700070FE4FF400720A490A4807F06AFE4FF4D2
:1044800000720949094807F064FE4FF400720849B8
:10449000084807F05EFE00BDC4020020C4420020B0
:1044A000DC420020DC820020C4220020D042002018
:1044B000DC620020E882002010B504460B488442EC
:1044C00009D10121480605F06BFB00214FF0007077
:1044D00005F066FB08E00121880605F061FB00217C
:1044E0004FF0806005F05CFB10BD000000640040F0
:1044F00010B58CB004469DF804006349087007F0BD
:1045000073FE62490870084600785F49087002A887
:1045100005F080FB40F618115D48FBF7A0FE012175
:10452000082005F04DFB0121042005F049FB012185
:10453000480605F025FB0121084605F041FB012155
:10454000880605F01DFB0121082005F039FB4FF41A
:104550000060ADF82C0048208DF82F000BA94D48C5
:1045600004F031FD4FF48050ADF82C0018208DF888
:104570002F0003208DF82E000BA9464804F023FDE0
:104580004FF48050ADF82C0048208DF82F000BA977
:10459000414804F018FD4FF40050ADF82C001820ED
:1045A0008DF82F0003208DF82E000BA93A4804F057
:1045B0000AFD4FF4C06005F065FA02208DF81D0079
:1045C00001208DF81E008DF81F0014208DF81C00AE
:1045D00007A805F01DFA40208DF81C0007A805F07B
:1045E00017FA2E48FFF768FF2D48FFF765FF08A868
:1045F00003F02AFA00208DF8260001208DF827000C
:1046000000208DF8280001208DF829008DF82A005F
:104610008DF82B0000208DF8220003208DF8230058
:1046200009208DF8240004208DF825001D49A0687C
:10463000B0FBF1F080B2ADF82000BDF820201A48A0
:10464000A16807F05FFA08A9144800F0BCF808A9AF
:10465000134800F0B8F80521002008F0B7FA02214D
:104660000E2008F0B3FA03210F2008F0AFFA012260
:1046700002210A4800F09EF801220221084800F0B9
:1046800099F80CB010BD0000F800002000010020D7
:10469000F482002000080140000C0140006400404A
:1046A0000068004080841E00CCE2000810B50021A4
:1046B000837A012202FA03F13D4A126842F00102B4
:1046C0003B4B1A603A4A1C3212688A43384B1C33FF
:1046D0001A60027BCAB9364A0C3212688A43344BDC
:1046E0000C331A604288C38842EA0343304A40329E
:1046F000847A42F834300288838842EA03432C4AA1
:104700004032847A02EBC4025360027B012A19D141
:10471000274A0C3212680A43254B0C331A60428830
:10472000038842EA0343224A4032847A42F8343012
:10473000C288838842EA03431D4A4032847A02EBEE
:10474000C4025360C27A3AB9194A121D12688A43E8
:10475000174B1B1D1A6006E0154A121D12680A430A
:10476000134B1B1D1A60028932B9114A14321268A8
:104770008A430F4B14331A600289012A06D10C4A6E
:10478000143212680A430A4B14331A60427B012A1E
:1047900006D1074A1C3212680A43054B1C331A60C3
:1047A000034A126822F00102014B1A6010BD00009A
:1047B000006600401AB143690B43436102E043695C
:1047C0008B434361704730B50246002000231468D4
:1047D00024F002041460146844F00104146000E042
:1047E0005B1C546814F0010F03D1A3F57F44FF3C18
:1047F000F6D1546814F0010F01D100206CE08C79DF
:10480000012C04D1146844F08004146003E014689F
:1048100024F080041460CC79012C04D1146844F095
:104820004004146003E0146824F0400414600C7A1F
:10483000012C04D1146844F02004146003E01468CF
:1048400024F0200414604C7A012C04D1146844F044
:104850001004146003E0146824F0100414608C7ACF
:10486000012C04D1146844F00804146003E01468B7
:1048700024F008041460CC7A012C04D1146844F0AC
:104880000404146003E0146824F0040414608C78B9
:10489000A407CD7844EA05640D7944EA05444D79CE
:1048A00044EA05540D886D1E2C43D461146824F02D
:1048B00001041460002300E05B1C546814F0010F35
:1048C00003D0A3F57F44FF3CF6D1546814F0010FE8
:1048D00001D0002000E0012030BD10B50446204684
:1048E000FFF706FEFFF7BEFD10BD000000B58BB060
:1048F00002F045B80020F7490860F74807F013FCBC
:104900000690069800680146059007A804F027F96C
:10491000069800798DF822000698007902460590E5
:10492000069908310DF12300FBF780FC069800681A
:104930000146019002A804F012F99DF81F00052815
:1049400008D09DF81F0001460590E4A007F0DAF8B2
:104950000BB000BD9DF82000401E04D49DF820003F
:10496000401E0D280ADB9DF820000590401E049093
:104970000146E2A0059A07F0C5F8E9E79DF8210095
:1049800048287DD01FDC41287BD011DC052879D058
:1049900009DC002877D0012801F0AE82022841F01E
:1049A000E58701F0C4BE20286ED02228F7D176E139
:1049B0004238052881F0DA87DFE810F0F7013D0280
:1049C000AE047C057E0178281AD00BDCA0F14900EA
:1049D0000628EFD2DFE810F0BC020103CA0F47033C
:1049E00090031804C02801F0748704DC792829D0CA
:1049F0008028D4D14DE0DE2875D0DF28CFD1FDE36B
:104A00000621CB4801709DF82000401EC0B20590E1
:104A10009DF8210004909DF82200039001460DF1BD
:104A20002300DDE9042303F07FF99DF820000590C1
:104A30009DF81D0004900146BEA0059A07F062F89B
:104A400001F09CBF0620BA4908709DF82000401E66
:104A5000C0B205909DF8210004909DF822000390BB
:104A600001460DF12300DDE9042303F05DF99DF813
:104A7000200005909DF81D0004900146ADA004E0C3
:104A800022E2FDE326E0FCE382E1059A07F03AF832
:104A9000D6E70620A64908709DF82000401EC0B247
:104AA00005909DF8210004909DF822000390014696
:104AB0000DF12300DDE9042303F036F99DF8200011
:104AC00005909DF81D00049001469AA0059A07F0F4
:104AD00019F8B5E707A8407A0D2803DC07A8807A03
:104AE0000C2801DD34E7FDE307A8C07A01281BD1BB
:104AF00007A8407A401E00EB40009E4901EBC00130
:104B000007A8807A401E31F81000401C81B207A827
:104B1000407A401E00EB4000964A02EBC00207A814
:104B2000807A401E22F8101007A8C07A02281BD1F4
:104B300007A8407A401E00EB40008F4901EBC001FE
:104B400007A8807A401E31F81000401C81B207A8E7
:104B5000407A401E00EB4000874A02EBC00207A8E3
:104B6000807A401E22F8101007A8407A401E00EB01
:104B70004000824901EBC00107A8807A401E31F84D
:104B80001000401C81B207A8407A401E00EB400094
:104B90007A4A02EBC00207A8807A401E22F8101061
:104BA00007A8C17A407A401E00EB4000744A02EB2D
:104BB000800207A8807A401E115407A8407A401E40
:104BC00000EB40006D4901EBC00107A8807A401E50
:104BD00031F81000642190FBF1F201FB1200E8BBF8
:104BE00007A8407A401EC0B28DF80C009DF8230043
:104BF0008DF80F0007A8017A8DF81010417A8DF812
:104C00001110817A8DF81210407A401E00EB40009E
:104C1000584901EBC00107A8807A401E31F8100006
:104C2000010A8DF8131007A8407A401E00EB4000DF
:104C3000524901EBC00107A8807A401E11F81010FC
:104C40008DF8141007A8407A401E00EB40004A4936
:104C500001EBC00107A8807A401E00E01EE031F899
:104C60001000010A8DF8151007A8407A401E00EBCD
:104C70004000414901EBC00107A8807A401E11F8AD
:104C800010108DF816100220294908700023052203
:104C900008210DF10F0003F047F800BFD0E69DF8A2
:104CA0002000401E374908709DF8200001460590FD
:104CB000222009F009F9C3E600229DF82300401ED6
:104CC00031490A5400219DF82300401E2F4A1154F7
:104CD000B6E60000F4000020C442002052583A20FA
:104CE00077726F6E6720646576696365207479708A
:104CF000652025642E2E2E2E0D0A000052583A20D3
:104D000077726F6E67206465766963652069642CCD
:104D1000207361766520746F202564205B206765B1
:104D2000742069642025645D2E2E2E2E0D0A00004D
:104D3000080100204040402D307837382D40404059
:104D4000204669726D77617265204D657373616786
:104D500065202D2D20537472696E672069643A2096
:104D600025642C2042502069643A202564200D0AD5
:104D700020000000C0A00020889F0020509E00203E
:104D8000F8A10020E5000020FD9800203D960020BD
:104D90009DF82000401EFE4908709DF82000014645
:104DA0000590202009F090F84AE69DF8230007A915
:104DB000097A60F31F219DF82000401E2B225043EA
:104DC000F44A02EB8000A0F84A1007A8407A07A92D
:104DD000897A60F31F219DF82000401E2B2250434A
:104DE000EC4A02EB8000A0F84C1007A8C07A07A993
:104DF000097B60F31F219DF82000401E2B225043A9
:104E0000E44A02EB8000A0F84E1007A8407B07A9F7
:104E1000897B60F31F219DF82000401E2B22504308
:104E2000DC4A02EB8000A0F850109DF82000401EE4
:104E3000D749087004E69DF8230007A9097A60F3B2
:104E40001F2109B29DF82000401E2B225043D14A59
:104E500002EB8000A0F8541007A8407A07A9897ACD
:104E600060F31F2109B29DF82000401E2B22504301
:104E7000C84A02EB8000A0F8561007A8C07A07A91C
:104E8000097B60F31F2109B29DF82000401E2B22F0
:104E90005043C04A02EB8000A0F8581007A8407B9E
:104EA00007A9897B60F31F219DF82000401E2B225B
:104EB0005043B84A02EB8000A0F87C109DF8200017
:104EC000401EB3490870BBE59DF8230007A9097A85
:104ED00060F31F219DF82000401E2B225043AD4A55
:104EE00022F8201007A8407A07A9897A60F31F21C9
:104EF0009DF82000401E2B225043A64A02EB800062
:104F0000C18007A8C07A07A9097B60F31F219DF81B
:104F10002000401E2B2250439E4A02EB80008181DC
:104F200007A8407B07A9897B60F31F219DF820001B
:104F3000401E2B225043974A02EB800041829DF88D
:104F40002000401E924908700C2007F0B5FE77E55E
:104F50009DF8230007A9097A60F31F219DF820001E
:104F6000401E2B2250438B4A02EB8000018307A88E
:104F7000407A07A9897A60F31F219DF82000401E1E
:104F80002B225043834A02EB8000C18307A8C07ADA
:104F900007A9097B60F31F219DF82000401E2B22EA
:104FA00050437C4A02EB8000818407A8407B07A91C
:104FB000897B60F31F219DF82000401E2B22504367
:104FC000744A02EB800041859DF82000401E704924
:104FD00008700D2007F070FE32E59DF8230007A948
:104FE000097A60F31F219DF82000401E2B225043B8
:104FF000684A02EB8000018607A8407A07A9897AEF
:1050000060F31F219DF82000401E2B225043614A6F
:1050100002EB8000C18607A8C07A07A9097B60F36C
:105020001F219DF82000401E2B225043594A02EBBD
:105030008000818707A8407B07A9897B60F31F2137
:105040009DF82000401E2B225043524A02EB800064
:10505000A0F842109DF82000401E4D4908700E2017
:1050600007F02AFEECE49DF8230007A9097A60F313
:105070001F2109B29DF82000401E2B225043454AB3
:1050800002EB8000418007A8407A07A9897A60F383
:105090001F2109B29DF82000401E2B2250433D4A9B
:1050A00002EB8000018107A8C07A07A9097B60F3A1
:1050B0001F2109B29DF82000401E2B225043354A83
:1050C00002EB8000C18107A8407B07A9897B60F3C0
:1050D0001F2109B29DF82000401E2B2250432D4A6B
:1050E00002EB800081829DF82000401E2849087054
:1050F0000F2007F0E1FDA3E49DF8230007A9097A3A
:1051000060F31F2109B29DF82000401E2B2250435E
:10511000204A02EB8000418307A8407A07A9897AD8
:1051200060F31F2109B29DF82000401E2B2250433E
:10513000184A02EB8000018407A8C07A07A9097BFE
:1051400060F31F2109B29DF82000401E2B2250431E
:10515000104A02EB8000C18407A8407B07A9897B25
:1051600060F31F2109B29DF82000401E2B225043FE
:10517000084A02EB800081859DF82000401E2B210B
:105180004843114601EB8000B0F92C2004E00000F8
:10519000E5000020F48200209DF82000401E2B2115
:1051A0004843FD4901EB8000B0F926109DF820002E
:1051B000401E2B235843F84B03EB8000B0F920002E
:1051C0008DE807009DF82000401E2B21484319461A
:1051D00001EB8000B0F91A0005909DF820000490C2
:1051E0009DF81D0003900146EC48DDE9042306F01C
:1051F00089FC9DF82000401EE94900E0D2E10870DA
:10520000102007F059FD1BE49DF8230007A9097A37
:1052100060F31F2109B29DF82000401E2B2250434D
:10522000DD4A02EB8000418607A8407A07A9897A07
:1052300060F31F2109B29DF82000401E2B2250432D
:10524000D54A02EB8000018707A8C07A07A9097B2D
:1052500060F31F2109B29DF82000401E2B2250430D
:10526000CD4A02EB8000C18707A8407B07A9897B54
:1052700060F31F2109B29DF82000401E2B2201E09F
:1052800051E100E25043C44A02EB8000A0F8441010
:105290009DF82000401E2B214843114601EB800061
:1052A000B0F944109DF82000401E2B225043BA4A0A
:1052B00002EB8000B0F93E209DF82000401E2B2319
:1052C0005843B54B03EB8000B0F93800CDE901211C
:1052D00000909DF82000401E2B214843194601EB09
:1052E000800000E0AAE1B0F9320005909DF82000AE
:1052F00004909DF81D0003900146A8484C30DDE95C
:10530000042306F0FFFB9DF82000401EA44908700E
:10531000112007F0D1FCC1E407A8007A00F00101D8
:105320009DF82000401E2B2250439B4A02EB800038
:10533000017107A8007AC0F340019DF82000401ECB
:105340002B225043944A02EB8000817207A8007A16
:10535000C0F380019DF82000401E2B2250438E4A4E
:1053600002EB8000017407A8007AC0F3C0019DF829
:105370002000401E2B225043874A02EB800081759B
:1053800007A8007AC0F300119DF82000401E2B22D0
:105390005043814A02EB8000017707A8007AC0F3EE
:1053A00040119DF82000401E2B2250437A4A02EB08
:1053B000800080F8221007A8007AC0F380119DF8C1
:1053C0002000401E2B225043734A02EB800080F8DD
:1053D000281007A8007AC1099DF82000401E2B2242
:1053E00050436D4A02EB800080F82E109DF8230098
:1053F00000F001019DF82000401E2B225043664A18
:1054000002EB800080F834109DF82300C0F34001C7
:105410009DF82000401E2B2250435F4A02EB800083
:1054200080F83A109DF82300C0F380019DF8200019
:10543000401E2B225043584A02EB800080F8401057
:105440009DF82300C0F3C0019DF82000401E2B22D0
:105450005043514A02EB800080F8461007A8417A79
:105460009DF82000401E2B2250434B4A02EB800047
:1054700080F8481007A8817AC07A61F31F2007A935
:10548000497B40EA014107A8007B41EA00619DF8A1
:105490002000401E2B2250433F4A02EB8000C0F800
:1054A00080109DF82000401E3D4908700B2007F039
:1054B00003FC0DE49DF8231007A8007A61F31F2078
:1054C00007A9897A40EA014107A8407A41EA0061C8
:1054D0009DF82000401E2B2250432F4A02EB8000F3
:1054E000C0F8801007A8C07A07A9097B60F31F21C4
:1054F0009DF82000401E2B225043274A02EB8000DB
:10550000A0F8521007A8407B07A9897B60F31F21F0
:105510009DF82000401E2B2250431F4A02EB8000C2
:10552000A0F8621040E49DF823109DF82000401E72
:105530002B225043184A02EB800080F8A81007A8DD
:10554000017A9DF82000401E2B225043124A02EBA4
:10555000800080F8A91007A8417A9DF82000401E1D
:105560002B2250430C4A02EB800080F8AA1007A8B7
:10557000817A9DF82000401E2B225043064A02EB00
:10558000800080F8AB109DF82000401E0449087090
:10559000202007F091FB07E4F4820020E8E40008F3
:1055A000E500002007A8807A010607A8407A41EAB2
:1055B000004107A8007A41EA00219DF82300014339
:1055C0009DF82000401E2B225043FA4A02EB800037
:1055D000C0F8841007A8C17A9DF82000401E2B2235
:1055E0005043F44A02EB800080F8881007A8017B42
:1055F0009DF82000401E2B225043EE4A02EB800013
:1056000080F8891007A8417B9DF82000401E2B22BE
:105610005043E84A02EB800080F88A1007A8817B9B
:105620009DF82000401E2B225043E24A02EB8000EE
:1056300080F88B10122007F03FFB44E407A8007AA3
:105640009DF8231040EA012001B29DF82000401E81
:105650002B225043D74A02EB8000A0F88C1007A8F9
:10566000817A407A41EA002001B29DF82000401E74
:105670002B225043CF4A02EB8000A0F88E1013205B
:1056800007F01AFB1FE407A8007AFF2870D107A8CB
:10569000007A05900020C84908700F2107A8017200
:1056A0009DF8200004909DF8210003909DF82200B1
:1056B000029001460DF12300DDE9032302F0E6FA32
:1056C00007A9059808729DF823000E281FD2DFE86D
:1056D00000F0071F3750687B8E9DF2F2F2F2F2ACB9
:1056E000B648006807A9897A491E01228A401043FA
:1056F000B249086001219DF82000401EB04A02EB2B
:105700000010017007A8807A401EAE4A1154D2E002
:10571000AD48006807A9897A491E01228A401043D2
:10572000A949086001219DF82000401EA44A02EB0F
:105730000010817007A8807A401EA44A1154BAE074
:10574000A348006807A9897A491E01228A401043AC
:105750009F49086001219DF82000401E984A02EBF5
:105760000010017107A8807A401E9A4A1154A2E0E5
:10577000A3E09948006807A9897A491E01228A4056
:1057800010439549086001219DF82000401E8C4A75
:1057900002EB0010817107A8807A401E8F4A1154D5
:1057A00089E08F48006807A9897A491E01228A404A
:1057B00010438B49086001219DF82000401E804A5B
:1057C00002EB0010017276E08648006807A9897A2A
:1057D000491E01228A4010438249086001219DF838
:1057E0002000401E764A02EB0010817263E0012027
:1057F0007D49087301219DF82000401E704A02EB8C
:105800000010017301207949087054E001207649A5
:10581000887301219DF82000401E694A02EB0010A8
:10582000817301207249087045E007A8807A401E04
:1058300000EB40006F4901EB800107A8C07A401ED1
:10584000085C20B96C480078401C6B490870012145
:1058500007A8807A401E00EB4000664A02EB8002F7
:1058600007A8C07A401E1154002107A8807A401E64
:1058700000EB4000614A02EB800207A8C07A401E9C
:10588000115407A8807A401E00EB40005C4A02EBEE
:10589000800207A8C07A401E115407A8817B807A35
:1058A000401E00EB4000574A02EB800207A8C07A76
:1058B000401E115400BF00BF00BF07A8007A002897
:1058C00076D107A8007A059000203B4908700E2188
:1058D00007A801729DF8200004909DF82100039014
:1058E0009DF82200029001460DF12300DDE903231B
:1058F00002F0CCF907A9059808729DF823000E283C
:1059000055D2DFE800F00783D1FEFDFCFBFA5454CA
:10591000545454F92948006807A9897A491E01227C
:105920008A4090432549086000219DF82000401ED0
:10593000234A02EB0010017007A8807A401E214A1A
:10594000115400201C490870002107A801721B484F
:10595000017807A8C17219480088010A07A80173D5
:1059600016480068010C07A8417314480068010E2E
:1059700007A8817308208DF8220001219DF82000DE
:10598000401E214A02EB001001709DF82000401ECD
:10599000C0B204909DF8210003909DF8220002906F
:1059A00001460DF12300DDE9032302F0BDF9A0E279
:1059B000A1E20000F482002008010020A8010020DC
:1059C000AD9A00206D950020B80100207A95002046
:1059D000B001002087950020C00100209495002090
:1059E000C8010020D00100207D9B0020D8000020AD
:1059F000D9000020398C002009010020D58C00201E
:105A0000A98E002019910020AD9B0020FD48006860
:105A100007A9897A491E01228A409043F949086002
:105A200000219DF82000401EF74A02EB0010817013
:105A300007A8807A401EF54A11540020F4490870E6
:105A4000002107A80172EF48017807A8C172ED484C
:105A50000088010A07A80173EA480068010C07A83A
:105A60004173E8480068010E07A8817308208DF88B
:105A7000220001219DF82000401EE64A02EB0010A2
:105A800081709DF82000401EC0B204909DF8210056
:105A900003909DF82200029001460DF12300DDE9FC
:105AA000032302F041F924E2DB48006807A9897A60
:105AB000491E01228A409043D749086000219DF881
:105AC0002000401ED04A02EB0010017107A8807A26
:105AD000401ED24A11540020CD490870002107A869
